{
  "contractName": "Ehr",
  "abi": [
    {
      "inputs": [],
      "stateMutability": "nonpayable",
      "type": "constructor"
    },
    {
      "anonymous": false,
      "inputs": [
        {
          "indexed": true,
          "internalType": "bytes32",
          "name": "role",
          "type": "bytes32"
        },
        {
          "indexed": true,
          "internalType": "bytes32",
          "name": "previousAdminRole",
          "type": "bytes32"
        },
        {
          "indexed": true,
          "internalType": "bytes32",
          "name": "newAdminRole",
          "type": "bytes32"
        }
      ],
      "name": "RoleAdminChanged",
      "type": "event"
    },
    {
      "anonymous": false,
      "inputs": [
        {
          "indexed": true,
          "internalType": "bytes32",
          "name": "role",
          "type": "bytes32"
        },
        {
          "indexed": true,
          "internalType": "address",
          "name": "account",
          "type": "address"
        },
        {
          "indexed": true,
          "internalType": "address",
          "name": "sender",
          "type": "address"
        }
      ],
      "name": "RoleGranted",
      "type": "event"
    },
    {
      "anonymous": false,
      "inputs": [
        {
          "indexed": true,
          "internalType": "bytes32",
          "name": "role",
          "type": "bytes32"
        },
        {
          "indexed": true,
          "internalType": "address",
          "name": "account",
          "type": "address"
        },
        {
          "indexed": true,
          "internalType": "address",
          "name": "sender",
          "type": "address"
        }
      ],
      "name": "RoleRevoked",
      "type": "event"
    },
    {
      "inputs": [],
      "name": "DEFAULT_ADMIN_ROLE",
      "outputs": [
        {
          "internalType": "bytes32",
          "name": "",
          "type": "bytes32"
        }
      ],
      "stateMutability": "view",
      "type": "function",
      "constant": true
    },
    {
      "inputs": [],
      "name": "PATIENT_ROLE",
      "outputs": [
        {
          "internalType": "bytes32",
          "name": "",
          "type": "bytes32"
        }
      ],
      "stateMutability": "view",
      "type": "function",
      "constant": true
    },
    {
      "inputs": [
        {
          "internalType": "bytes32",
          "name": "role",
          "type": "bytes32"
        }
      ],
      "name": "getRoleAdmin",
      "outputs": [
        {
          "internalType": "bytes32",
          "name": "",
          "type": "bytes32"
        }
      ],
      "stateMutability": "view",
      "type": "function",
      "constant": true
    },
    {
      "inputs": [
        {
          "internalType": "bytes32",
          "name": "role",
          "type": "bytes32"
        },
        {
          "internalType": "uint256",
          "name": "index",
          "type": "uint256"
        }
      ],
      "name": "getRoleMember",
      "outputs": [
        {
          "internalType": "address",
          "name": "",
          "type": "address"
        }
      ],
      "stateMutability": "view",
      "type": "function",
      "constant": true
    },
    {
      "inputs": [
        {
          "internalType": "bytes32",
          "name": "role",
          "type": "bytes32"
        }
      ],
      "name": "getRoleMemberCount",
      "outputs": [
        {
          "internalType": "uint256",
          "name": "",
          "type": "uint256"
        }
      ],
      "stateMutability": "view",
      "type": "function",
      "constant": true
    },
    {
      "inputs": [
        {
          "internalType": "bytes32",
          "name": "role",
          "type": "bytes32"
        },
        {
          "internalType": "address",
          "name": "account",
          "type": "address"
        }
      ],
      "name": "grantRole",
      "outputs": [],
      "stateMutability": "nonpayable",
      "type": "function"
    },
    {
      "inputs": [
        {
          "internalType": "bytes32",
          "name": "role",
          "type": "bytes32"
        },
        {
          "internalType": "address",
          "name": "account",
          "type": "address"
        }
      ],
      "name": "hasRole",
      "outputs": [
        {
          "internalType": "bool",
          "name": "",
          "type": "bool"
        }
      ],
      "stateMutability": "view",
      "type": "function",
      "constant": true
    },
    {
      "inputs": [
        {
          "internalType": "bytes32",
          "name": "role",
          "type": "bytes32"
        },
        {
          "internalType": "address",
          "name": "account",
          "type": "address"
        }
      ],
      "name": "renounceRole",
      "outputs": [],
      "stateMutability": "nonpayable",
      "type": "function"
    },
    {
      "inputs": [
        {
          "internalType": "bytes32",
          "name": "role",
          "type": "bytes32"
        },
        {
          "internalType": "address",
          "name": "account",
          "type": "address"
        }
      ],
      "name": "revokeRole",
      "outputs": [],
      "stateMutability": "nonpayable",
      "type": "function"
    },
    {
      "inputs": [
        {
          "internalType": "address",
          "name": "account",
          "type": "address"
        }
      ],
      "name": "isUser",
      "outputs": [
        {
          "internalType": "bool",
          "name": "",
          "type": "bool"
        }
      ],
      "stateMutability": "view",
      "type": "function",
      "constant": true
    },
    {
      "inputs": [
        {
          "internalType": "address",
          "name": "account",
          "type": "address"
        }
      ],
      "name": "isAdmin",
      "outputs": [
        {
          "internalType": "bool",
          "name": "",
          "type": "bool"
        }
      ],
      "stateMutability": "view",
      "type": "function",
      "constant": true
    },
    {
      "inputs": [
        {
          "internalType": "address",
          "name": "account",
          "type": "address"
        }
      ],
      "name": "isPatient",
      "outputs": [
        {
          "internalType": "bool",
          "name": "",
          "type": "bool"
        }
      ],
      "stateMutability": "view",
      "type": "function",
      "constant": true
    },
    {
      "inputs": [
        {
          "internalType": "address",
          "name": "account",
          "type": "address"
        }
      ],
      "name": "addPatientRole",
      "outputs": [],
      "stateMutability": "nonpayable",
      "type": "function"
    },
    {
      "inputs": [
        {
          "internalType": "address",
          "name": "_address",
          "type": "address"
        },
        {
          "internalType": "string",
          "name": "_patientHash",
          "type": "string"
        }
      ],
      "name": "newPatient",
      "outputs": [],
      "stateMutability": "nonpayable",
      "type": "function"
    },
    {
      "inputs": [
        {
          "internalType": "address",
          "name": "_address",
          "type": "address"
        },
        {
          "internalType": "string",
          "name": "_name",
          "type": "string"
        },
        {
          "internalType": "string",
          "name": "_email",
          "type": "string"
        }
      ],
      "name": "newDoctor",
      "outputs": [],
      "stateMutability": "nonpayable",
      "type": "function"
    },
    {
      "inputs": [
        {
          "internalType": "address",
          "name": "_address",
          "type": "address"
        }
      ],
      "name": "getPatient",
      "outputs": [
        {
          "internalType": "address",
          "name": "",
          "type": "address"
        },
        {
          "internalType": "string",
          "name": "",
          "type": "string"
        }
      ],
      "stateMutability": "view",
      "type": "function",
      "constant": true
    },
    {
      "inputs": [
        {
          "internalType": "address",
          "name": "_address",
          "type": "address"
        }
      ],
      "name": "getDoctor",
      "outputs": [
        {
          "internalType": "address",
          "name": "",
          "type": "address"
        },
        {
          "internalType": "string",
          "name": "",
          "type": "string"
        },
        {
          "internalType": "string",
          "name": "",
          "type": "string"
        }
      ],
      "stateMutability": "view",
      "type": "function",
      "constant": true
    },
    {
      "inputs": [
        {
          "internalType": "address",
          "name": "_address",
          "type": "address"
        },
        {
          "internalType": "string",
          "name": "_patientHash",
          "type": "string"
        }
      ],
      "name": "updatePatient",
      "outputs": [],
      "stateMutability": "nonpayable",
      "type": "function"
    },
    {
      "inputs": [
        {
          "internalType": "address",
          "name": "_address",
          "type": "address"
        }
      ],
      "name": "destroyPatient",
      "outputs": [],
      "stateMutability": "nonpayable",
      "type": "function"
    }
  ],
  "bytecode": "0x608060405233600160006101000a81548173ffffffffffffffffffffffffffffffffffffffff021916908373ffffffffffffffffffffffffffffffffffffffff1602179055503480156200005257600080fd5b506200008a6000801b600160009054906101000a900473ffffffffffffffffffffffffffffffffffffffff16620000da60201b60201c565b620000d460405180807f50415449454e5400000000000000000000000000000000000000000000000000815250600701905060405180910390206000801b620000f060201b60201c565b620002d2565b620000ec82826200015260201b60201c565b5050565b8060008084815260200190815260200160002060020154837fbd79b86ffe0ab8e8776151514217cd7cacd52c909f66475c3af44e129f0b00ff60405160405180910390a480600080848152602001908152602001600020600201819055505050565b6200018081600080858152602001908152602001600020600001620001f560201b62001b961790919060201c565b15620001f157620001966200022d60201b60201c565b73ffffffffffffffffffffffffffffffffffffffff168173ffffffffffffffffffffffffffffffffffffffff16837f2f8788117e7eff1d82e926ec794901d17c78024a50270940304540a733656f0d60405160405180910390a45b5050565b600062000225836000018373ffffffffffffffffffffffffffffffffffffffff1660001b6200023560201b60201c565b905092915050565b600033905090565b6000620002498383620002af60201b60201c565b620002a4578260000182908060018154018082558091505060019003906000526020600020016000909190919091505582600001805490508360010160008481526020019081526020016000208190555060019050620002a9565b600090505b92915050565b600080836001016000848152602001908152602001600020541415905092915050565b61209780620002e26000396000f3fe608060405234801561001057600080fd5b50600436106101215760003560e01c80638f9c79ed116100ad578063ac5cb97d11610071578063ac5cb97d14610816578063b5368e2014610834578063ca15c87314610924578063d547741f14610966578063f3c1f1a3146109b457610121565b80638f9c79ed1461067a5780639010d07c146106d657806391d148541461074e5780639a6f10ec146107b4578063a217fddf146107f857610121565b80632f04e064116100f45780632f04e064146103385780632f2ff15d1461049457806336568abe146104e25780634209fff1146105305780638ad418bb1461058c57610121565b80630bac5d26146101265780631088fa18146101bf578063248a9ca31461029a57806324d7806c146102dc575b600080fd5b6101bd6004803603604081101561013c57600080fd5b81019080803573ffffffffffffffffffffffffffffffffffffffff1690602001909291908035906020019064010000000081111561017957600080fd5b82018360208201111561018b57600080fd5b803590602001918460018302840111640100000000831117156101ad57600080fd5b90919293919293905050506109f8565b005b610298600480360360408110156101d557600080fd5b81019080803573ffffffffffffffffffffffffffffffffffffffff1690602001909291908035906020019064010000000081111561021257600080fd5b82018360208201111561022457600080fd5b8035906020019184600183028401116401000000008311171561024657600080fd5b91908080601f016020809104026020016040519081016040528093929190818152602001838380828437600081840152601f19601f820116905080830192505050505050509192919290505050610b96565b005b6102c6600480360360208110156102b057600080fd5b8101908080359060200190929190505050610c6c565b6040518082815260200191505060405180910390f35b61031e600480360360208110156102f257600080fd5b81019080803573ffffffffffffffffffffffffffffffffffffffff169060200190929190505050610c8b565b604051808215151515815260200191505060405180910390f35b61037a6004803603602081101561034e57600080fd5b81019080803573ffffffffffffffffffffffffffffffffffffffff169060200190929190505050610ca1565b604051808473ffffffffffffffffffffffffffffffffffffffff1673ffffffffffffffffffffffffffffffffffffffff1681526020018060200180602001838103835285818151815260200191508051906020019080838360005b838110156103f05780820151818401526020810190506103d5565b50505050905090810190601f16801561041d5780820380516001836020036101000a031916815260200191505b50838103825284818151815260200191508051906020019080838360005b8381101561045657808201518184015260208101905061043b565b50505050905090810190601f1680156104835780820380516001836020036101000a031916815260200191505b509550505050505060405180910390f35b6104e0600480360360408110156104aa57600080fd5b8101908080359060200190929190803573ffffffffffffffffffffffffffffffffffffffff169060200190929190505050611056565b005b61052e600480360360408110156104f857600080fd5b8101908080359060200190929190803573ffffffffffffffffffffffffffffffffffffffff1690602001909291905050506110df565b005b6105726004803603602081101561054657600080fd5b81019080803573ffffffffffffffffffffffffffffffffffffffff169060200190929190505050611178565b604051808215151515815260200191505060405180910390f35b610678600480360360608110156105a257600080fd5b81019080803573ffffffffffffffffffffffffffffffffffffffff169060200190929190803590602001906401000000008111156105df57600080fd5b8201836020820111156105f157600080fd5b8035906020019184600183028401116401000000008311171561061357600080fd5b90919293919293908035906020019064010000000081111561063457600080fd5b82018360208201111561064657600080fd5b8035906020019184600183028401116401000000008311171561066857600080fd5b90919293919293905050506111ec565b005b6106bc6004803603602081101561069057600080fd5b81019080803573ffffffffffffffffffffffffffffffffffffffff1690602001909291905050506113f7565b604051808215151515815260200191505060405180910390f35b61070c600480360360408110156106ec57600080fd5b81019080803590602001909291908035906020019092919050505061143f565b604051808273ffffffffffffffffffffffffffffffffffffffff1673ffffffffffffffffffffffffffffffffffffffff16815260200191505060405180910390f35b61079a6004803603604081101561076457600080fd5b8101908080359060200190929190803573ffffffffffffffffffffffffffffffffffffffff169060200190929190505050611470565b604051808215151515815260200191505060405180910390f35b6107f6600480360360208110156107ca57600080fd5b81019080803573ffffffffffffffffffffffffffffffffffffffff1690602001909291905050506114a1565b005b610800611598565b6040518082815260200191505060405180910390f35b61081e61159f565b6040518082815260200191505060405180910390f35b6108766004803603602081101561084a57600080fd5b81019080803573ffffffffffffffffffffffffffffffffffffffff1690602001909291905050506115d8565b604051808373ffffffffffffffffffffffffffffffffffffffff1673ffffffffffffffffffffffffffffffffffffffff16815260200180602001828103825283818151815260200191508051906020019080838360005b838110156108e85780820151818401526020810190506108cd565b50505050905090810190601f1680156109155780820380516001836020036101000a031916815260200191505b50935050505060405180910390f35b6109506004803603602081101561093a57600080fd5b810190808035906020019092919050505061189d565b6040518082815260200191505060405180910390f35b6109b26004803603604081101561097c57600080fd5b8101908080359060200190929190803573ffffffffffffffffffffffffffffffffffffffff1690602001909291905050506118c3565b005b6109f6600480360360208110156109ca57600080fd5b81019080803573ffffffffffffffffffffffffffffffffffffffff16906020019092919050505061194c565b005b610a0133610c8b565b610a73576040517f08c379a00000000000000000000000000000000000000000000000000000000081526004018080602001828103825260158152602001807f5265737472696374656420746f2061646d696e732e000000000000000000000081525060200191505060405180910390fd5b60405180604001604052808473ffffffffffffffffffffffffffffffffffffffff16815260200183838080601f016020809104026020016040519081016040528093929190818152602001838380828437600081840152601f19601f82011690508083019250505050505050815250600260008573ffffffffffffffffffffffffffffffffffffffff1673ffffffffffffffffffffffffffffffffffffffff16815260200190815260200160002060008201518160000160006101000a81548173ffffffffffffffffffffffffffffffffffffffff021916908373ffffffffffffffffffffffffffffffffffffffff1602179055506020820151816001019080519060200190610b84929190611e05565b50905050610b918361194c565b505050565b610b9f33610c8b565b610c11576040517f08c379a00000000000000000000000000000000000000000000000000000000081526004018080602001828103825260158152602001807f5265737472696374656420746f2061646d696e732e000000000000000000000081525060200191505060405180910390fd5b80600260008473ffffffffffffffffffffffffffffffffffffffff1673ffffffffffffffffffffffffffffffffffffffff1681526020019081526020016000206001019080519060200190610c67929190611e85565b505050565b6000806000838152602001908152602001600020600201549050919050565b6000610c9a6000801b83611470565b9050919050565b6000606080610caf33610c8b565b610d21576040517f08c379a00000000000000000000000000000000000000000000000000000000081526004018080602001828103825260158152602001807f5265737472696374656420746f2061646d696e732e000000000000000000000081525060200191505060405180910390fd5b8373ffffffffffffffffffffffffffffffffffffffff16600360008673ffffffffffffffffffffffffffffffffffffffff1673ffffffffffffffffffffffffffffffffffffffff16815260200190815260200160002060000160009054906101000a900473ffffffffffffffffffffffffffffffffffffffff1673ffffffffffffffffffffffffffffffffffffffff161415610fe157600360008573ffffffffffffffffffffffffffffffffffffffff1673ffffffffffffffffffffffffffffffffffffffff16815260200190815260200160002060000160009054906101000a900473ffffffffffffffffffffffffffffffffffffffff16600360008673ffffffffffffffffffffffffffffffffffffffff1673ffffffffffffffffffffffffffffffffffffffff168152602001908152602001600020600101600360008773ffffffffffffffffffffffffffffffffffffffff1673ffffffffffffffffffffffffffffffffffffffff168152602001908152602001600020600201818054600181600116156101000203166002900480601f016020809104026020016040519081016040528092919081815260200182805460018160011615610100020316600290048015610f335780601f10610f0857610100808354040283529160200191610f33565b820191906000526020600020905b815481529060010190602001808311610f1657829003601f168201915b50505050509150808054600181600116156101000203166002900480601f016020809104026020016040519081016040528092919081815260200182805460018160011615610100020316600290048015610fcf5780601f10610fa457610100808354040283529160200191610fcf565b820191906000526020600020905b815481529060010190602001808311610fb257829003601f168201915b5050505050905092509250925061104f565b6040517f08c379a00000000000000000000000000000000000000000000000000000000081526004018080602001828103825260158152602001807f446f63746f7220646f6573206e6f74206578697374000000000000000000000081525060200191505060405180910390fd5b9193909250565b61107c60008084815260200190815260200160002060020154611077611a09565b611470565b6110d1576040517f08c379a000000000000000000000000000000000000000000000000000000000815260040180806020018281038252602f815260200180611f95602f913960400191505060405180910390fd5b6110db8282611a11565b5050565b6110e7611a09565b73ffffffffffffffffffffffffffffffffffffffff168173ffffffffffffffffffffffffffffffffffffffff161461116a576040517f08c379a000000000000000000000000000000000000000000000000000000000815260040180806020018281038252602f815260200180612033602f913960400191505060405180910390fd5b6111748282611aa4565b5050565b60006111b960405180807f50415449454e54000000000000000000000000000000000000000000000000008152506007019050604051809103902083611470565b156111c757600190506111e7565b6111d46000801b83611470565b156111e257600190506111e7565b600090505b919050565b6111f533610c8b565b611267576040517f08c379a00000000000000000000000000000000000000000000000000000000081526004018080602001828103825260158152602001807f5265737472696374656420746f2061646d696e732e000000000000000000000081525060200191505060405180910390fd5b60405180606001604052808673ffffffffffffffffffffffffffffffffffffffff16815260200185858080601f016020809104026020016040519081016040528093929190818152602001838380828437600081840152601f19601f82011690508083019250505050505050815260200183838080601f016020809104026020016040519081016040528093929190818152602001838380828437600081840152601f19601f82011690508083019250505050505050815250600360008773ffffffffffffffffffffffffffffffffffffffff1673ffffffffffffffffffffffffffffffffffffffff16815260200190815260200160002060008201518160000160006101000a81548173ffffffffffffffffffffffffffffffffffffffff021916908373ffffffffffffffffffffffffffffffffffffffff16021790555060208201518160010190805190602001906113c2929190611e05565b5060408201518160020190805190602001906113df929190611e05565b509050506113f06000801b86611056565b5050505050565b600061143860405180807f50415449454e54000000000000000000000000000000000000000000000000008152506007019050604051809103902083611470565b9050919050565b600061146882600080868152602001908152602001600020600001611b3790919063ffffffff16565b905092915050565b600061149982600080868152602001908152602001600020600001611b5190919063ffffffff16565b905092915050565b6114aa33610c8b565b61151c576040517f08c379a00000000000000000000000000000000000000000000000000000000081526004018080602001828103825260158152602001807f5265737472696374656420746f2061646d696e732e000000000000000000000081525060200191505060405180910390fd5b600260008273ffffffffffffffffffffffffffffffffffffffff1673ffffffffffffffffffffffffffffffffffffffff168152602001908152602001600020600080820160006101000a81549073ffffffffffffffffffffffffffffffffffffffff02191690556001820160006115939190611f05565b505050565b6000801b81565b60405180807f50415449454e54000000000000000000000000000000000000000000000000008152506007019050604051809103902081565b600060606115e533611178565b611657576040517f08c379a000000000000000000000000000000000000000000000000000000000815260040180806020018281038252601e8152602001807f5265737472696374656420746f2072656769737465726564207573657273000081525060200191505060405180910390fd5b3373ffffffffffffffffffffffffffffffffffffffff16600260008573ffffffffffffffffffffffffffffffffffffffff1673ffffffffffffffffffffffffffffffffffffffff16815260200190815260200160002060000160009054906101000a900473ffffffffffffffffffffffffffffffffffffffff1673ffffffffffffffffffffffffffffffffffffffff1614806116f857506116f733610c8b565b5b1561184757600260008473ffffffffffffffffffffffffffffffffffffffff1673ffffffffffffffffffffffffffffffffffffffff16815260200190815260200160002060000160009054906101000a900473ffffffffffffffffffffffffffffffffffffffff16600260008573ffffffffffffffffffffffffffffffffffffffff1673ffffffffffffffffffffffffffffffffffffffff168152602001908152602001600020600101808054600181600116156101000203166002900480601f0160208091040260200160405190810160405280929190818152602001828054600181600116156101000203166002900480156118375780601f1061180c57610100808354040283529160200191611837565b820191906000526020600020905b81548152906001019060200180831161181a57829003601f168201915b5050505050905091509150611898565b6040517f08c379a000000000000000000000000000000000000000000000000000000000815260040180806020018281038252603f815260200180611ff4603f913960400191505060405180910390fd5b915091565b60006118bc600080848152602001908152602001600020600001611b81565b9050919050565b6118e9600080848152602001908152602001600020600201546118e4611a09565b611470565b61193e576040517f08c379a0000000000000000000000000000000000000000000000000000000008152600401808060200182810382526030815260200180611fc46030913960400191505060405180910390fd5b6119488282611aa4565b5050565b61195533610c8b565b6119c7576040517f08c379a00000000000000000000000000000000000000000000000000000000081526004018080602001828103825260158152602001807f5265737472696374656420746f2061646d696e732e000000000000000000000081525060200191505060405180910390fd5b611a0660405180807f50415449454e54000000000000000000000000000000000000000000000000008152506007019050604051809103902082611056565b50565b600033905090565b611a3881600080858152602001908152602001600020600001611b9690919063ffffffff16565b15611aa057611a45611a09565b73ffffffffffffffffffffffffffffffffffffffff168173ffffffffffffffffffffffffffffffffffffffff16837f2f8788117e7eff1d82e926ec794901d17c78024a50270940304540a733656f0d60405160405180910390a45b5050565b611acb81600080858152602001908152602001600020600001611bc690919063ffffffff16565b15611b3357611ad8611a09565b73ffffffffffffffffffffffffffffffffffffffff168173ffffffffffffffffffffffffffffffffffffffff16837ff6391f5c32d9c69d2a47ea670b442974b53935d1edc7fd64eb21e047a839171b60405160405180910390a45b5050565b6000611b468360000183611bf6565b60001c905092915050565b6000611b79836000018373ffffffffffffffffffffffffffffffffffffffff1660001b611c79565b905092915050565b6000611b8f82600001611c9c565b9050919050565b6000611bbe836000018373ffffffffffffffffffffffffffffffffffffffff1660001b611cad565b905092915050565b6000611bee836000018373ffffffffffffffffffffffffffffffffffffffff1660001b611d1d565b905092915050565b600081836000018054905011611c57576040517f08c379a0000000000000000000000000000000000000000000000000000000008152600401808060200182810382526022815260200180611f736022913960400191505060405180910390fd5b826000018281548110611c6657fe5b9060005260206000200154905092915050565b600080836001016000848152602001908152602001600020541415905092915050565b600081600001805490509050919050565b6000611cb98383611c79565b611d12578260000182908060018154018082558091505060019003906000526020600020016000909190919091505582600001805490508360010160008481526020019081526020016000208190555060019050611d17565b600090505b92915050565b60008083600101600084815260200190815260200160002054905060008114611df95760006001820390506000600186600001805490500390506000866000018281548110611d6857fe5b9060005260206000200154905080876000018481548110611d8557fe5b9060005260206000200181905550600183018760010160008381526020019081526020016000208190555086600001805480611dbd57fe5b60019003818190600052602060002001600090559055866001016000878152602001908152602001600020600090556001945050505050611dff565b60009150505b92915050565b828054600181600116156101000203166002900490600052602060002090601f016020900481019282601f10611e4657805160ff1916838001178555611e74565b82800160010185558215611e74579182015b82811115611e73578251825591602001919060010190611e58565b5b509050611e819190611f4d565b5090565b828054600181600116156101000203166002900490600052602060002090601f016020900481019282601f10611ec657805160ff1916838001178555611ef4565b82800160010185558215611ef4579182015b82811115611ef3578251825591602001919060010190611ed8565b5b509050611f019190611f4d565b5090565b50805460018160011615610100020316600290046000825580601f10611f2b5750611f4a565b601f016020900490600052602060002090810190611f499190611f4d565b5b50565b611f6f91905b80821115611f6b576000816000905550600101611f53565b5090565b9056fe456e756d657261626c655365743a20696e646578206f7574206f6620626f756e6473416363657373436f6e74726f6c3a2073656e646572206d75737420626520616e2061646d696e20746f206772616e74416363657373436f6e74726f6c3a2073656e646572206d75737420626520616e2061646d696e20746f207265766f6b6550617469656e7420646f6573206e6f74206578697374206f7220796f7520646f206e6f7420686176652061636365737320746f2074686973207265636f7264416363657373436f6e74726f6c3a2063616e206f6e6c792072656e6f756e636520726f6c657320666f722073656c66a264697066735822122094a91b828b750400b7fb0f3cceeee9c4147a97c9e8bc15e7fda69df1c870394b64736f6c63430006020033",
  "source": "pragma solidity ^0.6.0;\nimport \"@openzeppelin/contracts/access/AccessControl.sol\";\n\ncontract Ehr is AccessControl{\n\n    bytes32 public constant PATIENT_ROLE = keccak256(\"PATIENT\");\n    address root = msg.sender;\n\n    constructor () public {\n        _setupRole(DEFAULT_ADMIN_ROLE, root);\n        _setRoleAdmin(PATIENT_ROLE, DEFAULT_ADMIN_ROLE);\n       \n    }\n\n    modifier onlyAdmin() {\n      require(isAdmin(msg.sender), \"Restricted to admins.\");\n      _;\n    }\n\n    modifier onlyAdminPatient(){\n      require(isUser(msg.sender), \"Restricted to registered users\");\n     \n      _;\n    }\n    // To allow doctors and the patient who owns the record access their data\n    function isUser(address account) public virtual view returns (bool) {\n      if(hasRole(PATIENT_ROLE, account)){\n        return true;\n      } else if(hasRole(DEFAULT_ADMIN_ROLE, account)) {\n        return true;\n      } else {\n        return false;\n      }\n    }\n\n    function isAdmin(address account) public virtual view returns (bool) {\n      return hasRole(DEFAULT_ADMIN_ROLE, account);\n    }\n\n    function isPatient(address account) public virtual view returns (bool) {\n      return hasRole(PATIENT_ROLE, account);\n    }\n\n    function addPatientRole(address account) public virtual onlyAdmin {\n      grantRole(PATIENT_ROLE, account);\n    }\n\n    struct PatientDetails {\n        address addr;\n        string patientHash;\n    }\n\n    struct DoctorDetails {\n        address addr;\n        string name;\n        string email;\n    }\n\n    mapping (address => PatientDetails) patients;\n    mapping (address => DoctorDetails) doctors;\n\n    function newPatient(\n        address _address,\n        string calldata _patientHash) external onlyAdmin {\n        patients[_address] = PatientDetails(_address,\n                                            _patientHash);\n        addPatientRole(_address);\n    }\n\n    function newDoctor(\n        address _address,\n        string calldata _name,\n        string calldata _email) external onlyAdmin {\n            doctors[_address] = DoctorDetails(_address,\n                                            _name,\n                                            _email);\n        grantRole(DEFAULT_ADMIN_ROLE, _address);\n    }\n\n    function getPatient(address _address) public view onlyAdminPatient returns (address, string memory){\n      if(patients[_address].addr == msg.sender || isAdmin(msg.sender)){\n        return (patients[_address].addr,\n                patients[_address].patientHash);\n       }\n      revert('Patient does not exist or you do not have access to this record');\n       \n\n    }\n\n    function getDoctor(address _address) public view onlyAdmin returns(address, string memory, string memory){\n        if(doctors[_address].addr == _address){\n          return (doctors[_address].addr,\n                doctors[_address].name,\n                doctors[_address].email);\n        }\n        revert('Doctor does not exist');\n            \n    }\n\n    function updatePatient(address _address, string memory _patientHash) public onlyAdmin {\n          patients[_address].patientHash = _patientHash;\n    }\n\n    function destroyPatient(address _address) public onlyAdmin {\n        delete patients[_address];\n    }\n\n\n\n}",
  "sourcePath": "/home/nigel/blockchain_ehr_app/src/contracts/Ehr.sol",
  "compiler": {
    "name": "solc",
    "version": "0.6.2+commit.bacdbe57.Emscripten.clang"
  },
  "schemaVersion": "3.2.0",
  "updatedAt": "2020-08-02T13:39:55.961Z",
  "networkType": "ethereum",
  "devdoc": {
    "methods": {
      "getRoleAdmin(bytes32)": {
        "details": "Returns the admin role that controls `role`. See {grantRole} and {revokeRole}.     * To change a role's admin, use {_setRoleAdmin}."
      },
      "getRoleMember(bytes32,uint256)": {
        "details": "Returns one of the accounts that have `role`. `index` must be a value between 0 and {getRoleMemberCount}, non-inclusive.     * Role bearers are not sorted in any particular way, and their ordering may change at any point.     * WARNING: When using {getRoleMember} and {getRoleMemberCount}, make sure you perform all queries on the same block. See the following https://forum.openzeppelin.com/t/iterating-over-elements-on-enumerableset-in-openzeppelin-contracts/2296[forum post] for more information."
      },
      "getRoleMemberCount(bytes32)": {
        "details": "Returns the number of accounts that have `role`. Can be used together with {getRoleMember} to enumerate all bearers of a role."
      },
      "grantRole(bytes32,address)": {
        "details": "Grants `role` to `account`.     * If `account` had not been already granted `role`, emits a {RoleGranted} event.     * Requirements:     * - the caller must have ``role``'s admin role."
      },
      "hasRole(bytes32,address)": {
        "details": "Returns `true` if `account` has been granted `role`."
      },
      "renounceRole(bytes32,address)": {
        "details": "Revokes `role` from the calling account.     * Roles are often managed via {grantRole} and {revokeRole}: this function's purpose is to provide a mechanism for accounts to lose their privileges if they are compromised (such as when a trusted device is misplaced).     * If the calling account had been granted `role`, emits a {RoleRevoked} event.     * Requirements:     * - the caller must be `account`."
      },
      "revokeRole(bytes32,address)": {
        "details": "Revokes `role` from `account`.     * If `account` had been granted `role`, emits a {RoleRevoked} event.     * Requirements:     * - the caller must have ``role``'s admin role."
      }
    }
  },
  "userdoc": {
    "methods": {}
  }
}