{
  "contractName": "Ehr",
  "abi": [
    {
      "inputs": [],
      "stateMutability": "nonpayable",
      "type": "constructor"
    },
    {
      "anonymous": false,
      "inputs": [
        {
          "indexed": true,
          "internalType": "bytes32",
          "name": "role",
          "type": "bytes32"
        },
        {
          "indexed": true,
          "internalType": "bytes32",
          "name": "previousAdminRole",
          "type": "bytes32"
        },
        {
          "indexed": true,
          "internalType": "bytes32",
          "name": "newAdminRole",
          "type": "bytes32"
        }
      ],
      "name": "RoleAdminChanged",
      "type": "event"
    },
    {
      "anonymous": false,
      "inputs": [
        {
          "indexed": true,
          "internalType": "bytes32",
          "name": "role",
          "type": "bytes32"
        },
        {
          "indexed": true,
          "internalType": "address",
          "name": "account",
          "type": "address"
        },
        {
          "indexed": true,
          "internalType": "address",
          "name": "sender",
          "type": "address"
        }
      ],
      "name": "RoleGranted",
      "type": "event"
    },
    {
      "anonymous": false,
      "inputs": [
        {
          "indexed": true,
          "internalType": "bytes32",
          "name": "role",
          "type": "bytes32"
        },
        {
          "indexed": true,
          "internalType": "address",
          "name": "account",
          "type": "address"
        },
        {
          "indexed": true,
          "internalType": "address",
          "name": "sender",
          "type": "address"
        }
      ],
      "name": "RoleRevoked",
      "type": "event"
    },
    {
      "inputs": [],
      "name": "DEFAULT_ADMIN_ROLE",
      "outputs": [
        {
          "internalType": "bytes32",
          "name": "",
          "type": "bytes32"
        }
      ],
      "stateMutability": "view",
      "type": "function",
      "constant": true
    },
    {
      "inputs": [],
      "name": "DOCTOR_ROLE",
      "outputs": [
        {
          "internalType": "bytes32",
          "name": "",
          "type": "bytes32"
        }
      ],
      "stateMutability": "view",
      "type": "function",
      "constant": true
    },
    {
      "inputs": [],
      "name": "PATIENT_ROLE",
      "outputs": [
        {
          "internalType": "bytes32",
          "name": "",
          "type": "bytes32"
        }
      ],
      "stateMutability": "view",
      "type": "function",
      "constant": true
    },
    {
      "inputs": [
        {
          "internalType": "bytes32",
          "name": "role",
          "type": "bytes32"
        }
      ],
      "name": "getRoleAdmin",
      "outputs": [
        {
          "internalType": "bytes32",
          "name": "",
          "type": "bytes32"
        }
      ],
      "stateMutability": "view",
      "type": "function",
      "constant": true
    },
    {
      "inputs": [
        {
          "internalType": "bytes32",
          "name": "role",
          "type": "bytes32"
        },
        {
          "internalType": "uint256",
          "name": "index",
          "type": "uint256"
        }
      ],
      "name": "getRoleMember",
      "outputs": [
        {
          "internalType": "address",
          "name": "",
          "type": "address"
        }
      ],
      "stateMutability": "view",
      "type": "function",
      "constant": true
    },
    {
      "inputs": [
        {
          "internalType": "bytes32",
          "name": "role",
          "type": "bytes32"
        }
      ],
      "name": "getRoleMemberCount",
      "outputs": [
        {
          "internalType": "uint256",
          "name": "",
          "type": "uint256"
        }
      ],
      "stateMutability": "view",
      "type": "function",
      "constant": true
    },
    {
      "inputs": [
        {
          "internalType": "bytes32",
          "name": "role",
          "type": "bytes32"
        },
        {
          "internalType": "address",
          "name": "account",
          "type": "address"
        }
      ],
      "name": "grantRole",
      "outputs": [],
      "stateMutability": "nonpayable",
      "type": "function"
    },
    {
      "inputs": [
        {
          "internalType": "bytes32",
          "name": "role",
          "type": "bytes32"
        },
        {
          "internalType": "address",
          "name": "account",
          "type": "address"
        }
      ],
      "name": "hasRole",
      "outputs": [
        {
          "internalType": "bool",
          "name": "",
          "type": "bool"
        }
      ],
      "stateMutability": "view",
      "type": "function",
      "constant": true
    },
    {
      "inputs": [
        {
          "internalType": "bytes32",
          "name": "role",
          "type": "bytes32"
        },
        {
          "internalType": "address",
          "name": "account",
          "type": "address"
        }
      ],
      "name": "renounceRole",
      "outputs": [],
      "stateMutability": "nonpayable",
      "type": "function"
    },
    {
      "inputs": [
        {
          "internalType": "bytes32",
          "name": "role",
          "type": "bytes32"
        },
        {
          "internalType": "address",
          "name": "account",
          "type": "address"
        }
      ],
      "name": "revokeRole",
      "outputs": [],
      "stateMutability": "nonpayable",
      "type": "function"
    },
    {
      "inputs": [
        {
          "internalType": "address",
          "name": "account",
          "type": "address"
        }
      ],
      "name": "isAdmin",
      "outputs": [
        {
          "internalType": "bool",
          "name": "",
          "type": "bool"
        }
      ],
      "stateMutability": "view",
      "type": "function",
      "constant": true
    },
    {
      "inputs": [
        {
          "internalType": "address",
          "name": "account",
          "type": "address"
        }
      ],
      "name": "isDoctor",
      "outputs": [
        {
          "internalType": "bool",
          "name": "",
          "type": "bool"
        }
      ],
      "stateMutability": "view",
      "type": "function",
      "constant": true
    },
    {
      "inputs": [
        {
          "internalType": "address",
          "name": "account",
          "type": "address"
        }
      ],
      "name": "addDoctorRole",
      "outputs": [],
      "stateMutability": "nonpayable",
      "type": "function"
    },
    {
      "inputs": [
        {
          "internalType": "address",
          "name": "_address",
          "type": "address"
        },
        {
          "internalType": "string",
          "name": "_name",
          "type": "string"
        },
        {
          "internalType": "string",
          "name": "_email",
          "type": "string"
        },
        {
          "internalType": "string",
          "name": "_password",
          "type": "string"
        },
        {
          "internalType": "string",
          "name": "_patientHash",
          "type": "string"
        }
      ],
      "name": "newPatient",
      "outputs": [],
      "stateMutability": "nonpayable",
      "type": "function"
    },
    {
      "inputs": [
        {
          "internalType": "address",
          "name": "_address",
          "type": "address"
        },
        {
          "internalType": "string",
          "name": "_name",
          "type": "string"
        },
        {
          "internalType": "string",
          "name": "_email",
          "type": "string"
        },
        {
          "internalType": "string",
          "name": "_password",
          "type": "string"
        }
      ],
      "name": "newDoctor",
      "outputs": [],
      "stateMutability": "nonpayable",
      "type": "function"
    },
    {
      "inputs": [
        {
          "internalType": "address",
          "name": "_address",
          "type": "address"
        }
      ],
      "name": "getPatient",
      "outputs": [
        {
          "internalType": "address",
          "name": "",
          "type": "address"
        },
        {
          "internalType": "string",
          "name": "",
          "type": "string"
        },
        {
          "internalType": "string",
          "name": "",
          "type": "string"
        },
        {
          "internalType": "string",
          "name": "",
          "type": "string"
        },
        {
          "internalType": "string",
          "name": "",
          "type": "string"
        }
      ],
      "stateMutability": "view",
      "type": "function",
      "constant": true
    },
    {
      "inputs": [
        {
          "internalType": "address",
          "name": "_address",
          "type": "address"
        }
      ],
      "name": "getDoctor",
      "outputs": [
        {
          "internalType": "address",
          "name": "",
          "type": "address"
        },
        {
          "internalType": "string",
          "name": "",
          "type": "string"
        },
        {
          "internalType": "string",
          "name": "",
          "type": "string"
        },
        {
          "internalType": "string",
          "name": "",
          "type": "string"
        }
      ],
      "stateMutability": "view",
      "type": "function",
      "constant": true
    },
    {
      "inputs": [
        {
          "internalType": "address",
          "name": "_address",
          "type": "address"
        },
        {
          "internalType": "string",
          "name": "_name",
          "type": "string"
        },
        {
          "internalType": "string",
          "name": "_email",
          "type": "string"
        },
        {
          "internalType": "string",
          "name": "_password",
          "type": "string"
        },
        {
          "internalType": "string",
          "name": "_patientHash",
          "type": "string"
        }
      ],
      "name": "updatePatient",
      "outputs": [],
      "stateMutability": "nonpayable",
      "type": "function"
    },
    {
      "inputs": [
        {
          "internalType": "address",
          "name": "_address",
          "type": "address"
        }
      ],
      "name": "destroyPatient",
      "outputs": [],
      "stateMutability": "nonpayable",
      "type": "function"
    }
  ],
  "bytecode": "0x608060405233600160006101000a81548173ffffffffffffffffffffffffffffffffffffffff021916908373ffffffffffffffffffffffffffffffffffffffff1602179055503480156200005257600080fd5b506200008a6000801b600160009054906101000a900473ffffffffffffffffffffffffffffffffffffffff16620000da60201b60201c565b620000d460405180807f444f43544f520000000000000000000000000000000000000000000000000000815250600601905060405180910390206000801b620000f060201b60201c565b620002d2565b620000ec82826200015260201b60201c565b5050565b8060008084815260200190815260200160002060020154837fbd79b86ffe0ab8e8776151514217cd7cacd52c909f66475c3af44e129f0b00ff60405160405180910390a480600080848152602001908152602001600020600201819055505050565b6200018081600080858152602001908152602001600020600001620001f560201b620023a01790919060201c565b15620001f157620001966200022d60201b60201c565b73ffffffffffffffffffffffffffffffffffffffff168173ffffffffffffffffffffffffffffffffffffffff16837f2f8788117e7eff1d82e926ec794901d17c78024a50270940304540a733656f0d60405160405180910390a45b5050565b600062000225836000018373ffffffffffffffffffffffffffffffffffffffff1660001b6200023560201b60201c565b905092915050565b600033905090565b6000620002498383620002af60201b60201c565b620002a4578260000182908060018154018082558091505060019003906000526020600020016000909190919091505582600001805490508360010160008481526020019081526020016000208190555060019050620002a9565b600090505b92915050565b600080836001016000848152602001908152602001600020541415905092915050565b61286280620002e26000396000f3fe608060405234801561001057600080fd5b50600436106101215760003560e01c806391d14854116100ad578063b5368e2011610071578063b5368e2014610901578063ca15c87314610b35578063d547741f14610b77578063fec331f214610bc5578063ffa62f5a14610be357610121565b806391d14854146107bf578063996440c6146108255780639a6f10ec14610881578063a217fddf146108c5578063ac5cb97d146108e357610121565b80632f2ff15d116100f45780632f2ff15d146103d057806336568abe1461041e57806378e0aa741461046c57806383764500146106045780639010d07c1461074757610121565b8063134a512414610126578063248a9ca31461016a57806324d7806c146101ac5780632f04e06414610208575b600080fd5b6101686004803603602081101561013c57600080fd5b81019080803573ffffffffffffffffffffffffffffffffffffffff169060200190929190505050610e83565b005b6101966004803603602081101561018057600080fd5b8101908080359060200190929190505050610f40565b6040518082815260200191505060405180910390f35b6101ee600480360360208110156101c257600080fd5b81019080803573ffffffffffffffffffffffffffffffffffffffff169060200190929190505050610f5f565b604051808215151515815260200191505060405180910390f35b61024a6004803603602081101561021e57600080fd5b81019080803573ffffffffffffffffffffffffffffffffffffffff169060200190929190505050610f75565b604051808573ffffffffffffffffffffffffffffffffffffffff1673ffffffffffffffffffffffffffffffffffffffff168152602001806020018060200180602001848103845287818151815260200191508051906020019080838360005b838110156102c45780820151818401526020810190506102a9565b50505050905090810190601f1680156102f15780820380516001836020036101000a031916815260200191505b50848103835286818151815260200191508051906020019080838360005b8381101561032a57808201518184015260208101905061030f565b50505050905090810190601f1680156103575780820380516001836020036101000a031916815260200191505b50848103825285818151815260200191508051906020019080838360005b83811015610390578082015181840152602081019050610375565b50505050905090810190601f1680156103bd5780820380516001836020036101000a031916815260200191505b5097505050505050505060405180910390f35b61041c600480360360408110156103e657600080fd5b8101908080359060200190929190803573ffffffffffffffffffffffffffffffffffffffff169060200190929190505050611391565b005b61046a6004803603604081101561043457600080fd5b8101908080359060200190929190803573ffffffffffffffffffffffffffffffffffffffff16906020019092919050505061141a565b005b610602600480360360a081101561048257600080fd5b81019080803573ffffffffffffffffffffffffffffffffffffffff169060200190929190803590602001906401000000008111156104bf57600080fd5b8201836020820111156104d157600080fd5b803590602001918460018302840111640100000000831117156104f357600080fd5b90919293919293908035906020019064010000000081111561051457600080fd5b82018360208201111561052657600080fd5b8035906020019184600183028401116401000000008311171561054857600080fd5b90919293919293908035906020019064010000000081111561056957600080fd5b82018360208201111561057b57600080fd5b8035906020019184600183028401116401000000008311171561059d57600080fd5b9091929391929390803590602001906401000000008111156105be57600080fd5b8201836020820111156105d057600080fd5b803590602001918460018302840111640100000000831117156105f257600080fd5b90919293919293905050506114b3565b005b6107456004803603608081101561061a57600080fd5b81019080803573ffffffffffffffffffffffffffffffffffffffff1690602001909291908035906020019064010000000081111561065757600080fd5b82018360208201111561066957600080fd5b8035906020019184600183028401116401000000008311171561068b57600080fd5b9091929391929390803590602001906401000000008111156106ac57600080fd5b8201836020820111156106be57600080fd5b803590602001918460018302840111640100000000831117156106e057600080fd5b90919293919293908035906020019064010000000081111561070157600080fd5b82018360208201111561071357600080fd5b8035906020019184600183028401116401000000008311171561073557600080fd5b9091929391929390505050611708565b005b61077d6004803603604081101561075d57600080fd5b810190808035906020019092919080359060200190929190505050611933565b604051808273ffffffffffffffffffffffffffffffffffffffff1673ffffffffffffffffffffffffffffffffffffffff16815260200191505060405180910390f35b61080b600480360360408110156107d557600080fd5b8101908080359060200190929190803573ffffffffffffffffffffffffffffffffffffffff169060200190929190505050611964565b604051808215151515815260200191505060405180910390f35b6108676004803603602081101561083b57600080fd5b81019080803573ffffffffffffffffffffffffffffffffffffffff169060200190929190505050611995565b604051808215151515815260200191505060405180910390f35b6108c36004803603602081101561089757600080fd5b81019080803573ffffffffffffffffffffffffffffffffffffffff1690602001909291905050506119dd565b005b6108cd611a89565b6040518082815260200191505060405180910390f35b6108eb611a90565b6040518082815260200191505060405180910390f35b6109436004803603602081101561091757600080fd5b81019080803573ffffffffffffffffffffffffffffffffffffffff169060200190929190505050611ac9565b604051808673ffffffffffffffffffffffffffffffffffffffff1673ffffffffffffffffffffffffffffffffffffffff16815260200180602001806020018060200180602001858103855289818151815260200191508051906020019080838360005b838110156109c15780820151818401526020810190506109a6565b50505050905090810190601f1680156109ee5780820380516001836020036101000a031916815260200191505b50858103845288818151815260200191508051906020019080838360005b83811015610a27578082015181840152602081019050610a0c565b50505050905090810190601f168015610a545780820380516001836020036101000a031916815260200191505b50858103835287818151815260200191508051906020019080838360005b83811015610a8d578082015181840152602081019050610a72565b50505050905090810190601f168015610aba5780820380516001836020036101000a031916815260200191505b50858103825286818151815260200191508051906020019080838360005b83811015610af3578082015181840152602081019050610ad8565b50505050905090810190601f168015610b205780820380516001836020036101000a031916815260200191505b50995050505050505050505060405180910390f35b610b6160048036036020811015610b4b57600080fd5b8101908080359060200190929190505050611fc8565b6040518082815260200191505060405180910390f35b610bc360048036036040811015610b8d57600080fd5b8101908080359060200190929190803573ffffffffffffffffffffffffffffffffffffffff169060200190929190505050611fee565b005b610bcd612077565b6040518082815260200191505060405180910390f35b610e81600480360360a0811015610bf957600080fd5b81019080803573ffffffffffffffffffffffffffffffffffffffff16906020019092919080359060200190640100000000811115610c3657600080fd5b820183602082011115610c4857600080fd5b80359060200191846001830284011164010000000083111715610c6a57600080fd5b91908080601f016020809104026020016040519081016040528093929190818152602001838380828437600081840152601f19601f82011690508083019250505050505050919291929080359060200190640100000000811115610ccd57600080fd5b820183602082011115610cdf57600080fd5b80359060200191846001830284011164010000000083111715610d0157600080fd5b91908080601f016020809104026020016040519081016040528093929190818152602001838380828437600081840152601f19601f82011690508083019250505050505050919291929080359060200190640100000000811115610d6457600080fd5b820183602082011115610d7657600080fd5b80359060200191846001830284011164010000000083111715610d9857600080fd5b91908080601f016020809104026020016040519081016040528093929190818152602001838380828437600081840152601f19601f82011690508083019250505050505050919291929080359060200190640100000000811115610dfb57600080fd5b820183602082011115610e0d57600080fd5b80359060200191846001830284011164010000000083111715610e2f57600080fd5b91908080601f016020809104026020016040519081016040528093929190818152602001838380828437600081840152601f19601f8201169050808301925050505050505091929192905050506120b0565b005b610e8c33610f5f565b610efe576040517f08c379a00000000000000000000000000000000000000000000000000000000081526004018080602001828103825260158152602001807f5265737472696374656420746f2061646d696e732e000000000000000000000081525060200191505060405180910390fd5b610f3d60405180807f444f43544f5200000000000000000000000000000000000000000000000000008152506006019050604051809103902082611391565b50565b6000806000838152602001908152602001600020600201549050919050565b6000610f6e6000801b83611964565b9050919050565b600060608060608473ffffffffffffffffffffffffffffffffffffffff16600360008773ffffffffffffffffffffffffffffffffffffffff1673ffffffffffffffffffffffffffffffffffffffff16815260200190815260200160002060000160009054906101000a900473ffffffffffffffffffffffffffffffffffffffff1673ffffffffffffffffffffffffffffffffffffffff16141561131c57600360008673ffffffffffffffffffffffffffffffffffffffff1673ffffffffffffffffffffffffffffffffffffffff16815260200190815260200160002060000160009054906101000a900473ffffffffffffffffffffffffffffffffffffffff16600360008773ffffffffffffffffffffffffffffffffffffffff1673ffffffffffffffffffffffffffffffffffffffff168152602001908152602001600020600101600360008873ffffffffffffffffffffffffffffffffffffffff1673ffffffffffffffffffffffffffffffffffffffff168152602001908152602001600020600201600360008973ffffffffffffffffffffffffffffffffffffffff1673ffffffffffffffffffffffffffffffffffffffff168152602001908152602001600020600301828054600181600116156101000203166002900480601f0160208091040260200160405190810160405280929190818152602001828054600181600116156101000203166002900480156111d05780601f106111a5576101008083540402835291602001916111d0565b820191906000526020600020905b8154815290600101906020018083116111b357829003601f168201915b50505050509250818054600181600116156101000203166002900480601f01602080910402602001604051908101604052809291908181526020018280546001816001161561010002031660029004801561126c5780601f106112415761010080835404028352916020019161126c565b820191906000526020600020905b81548152906001019060200180831161124f57829003601f168201915b50505050509150808054600181600116156101000203166002900480601f0160208091040260200160405190810160405280929190818152602001828054600181600116156101000203166002900480156113085780601f106112dd57610100808354040283529160200191611308565b820191906000526020600020905b8154815290600101906020018083116112eb57829003601f168201915b50505050509050935093509350935061138a565b6040517f08c379a00000000000000000000000000000000000000000000000000000000081526004018080602001828103825260158152602001807f446f63746f7220646f6573206e6f74206578697374000000000000000000000081525060200191505060405180910390fd5b9193509193565b6113b7600080848152602001908152602001600020600201546113b2612213565b611964565b61140c576040517f08c379a000000000000000000000000000000000000000000000000000000000815260040180806020018281038252602f81526020018061279f602f913960400191505060405180910390fd5b611416828261221b565b5050565b611422612213565b73ffffffffffffffffffffffffffffffffffffffff168173ffffffffffffffffffffffffffffffffffffffff16146114a5576040517f08c379a000000000000000000000000000000000000000000000000000000000815260040180806020018281038252602f8152602001806127fe602f913960400191505060405180910390fd5b6114af82826122ae565b5050565b6040518060a001604052808a73ffffffffffffffffffffffffffffffffffffffff16815260200189898080601f016020809104026020016040519081016040528093929190818152602001838380828437600081840152601f19601f82011690508083019250505050505050815260200187878080601f016020809104026020016040519081016040528093929190818152602001838380828437600081840152601f19601f82011690508083019250505050505050815260200185858080601f016020809104026020016040519081016040528093929190818152602001838380828437600081840152601f19601f82011690508083019250505050505050815260200183838080601f016020809104026020016040519081016040528093929190818152602001838380828437600081840152601f19601f82011690508083019250505050505050815250600260008b73ffffffffffffffffffffffffffffffffffffffff1673ffffffffffffffffffffffffffffffffffffffff16815260200190815260200160002060008201518160000160006101000a81548173ffffffffffffffffffffffffffffffffffffffff021916908373ffffffffffffffffffffffffffffffffffffffff16021790555060208201518160010190805190602001906116a292919061260f565b5060408201518160020190805190602001906116bf92919061260f565b5060608201518160030190805190602001906116dc92919061260f565b5060808201518160040190805190602001906116f992919061260f565b50905050505050505050505050565b60405180608001604052808873ffffffffffffffffffffffffffffffffffffffff16815260200187878080601f016020809104026020016040519081016040528093929190818152602001838380828437600081840152601f19601f82011690508083019250505050505050815260200185858080601f016020809104026020016040519081016040528093929190818152602001838380828437600081840152601f19601f82011690508083019250505050505050815260200183838080601f016020809104026020016040519081016040528093929190818152602001838380828437600081840152601f19601f82011690508083019250505050505050815250600360008973ffffffffffffffffffffffffffffffffffffffff1673ffffffffffffffffffffffffffffffffffffffff16815260200190815260200160002060008201518160000160006101000a81548173ffffffffffffffffffffffffffffffffffffffff021916908373ffffffffffffffffffffffffffffffffffffffff16021790555060208201518160010190805190602001906118ad92919061260f565b5060408201518160020190805190602001906118ca92919061260f565b5060608201518160030190805190602001906118e792919061260f565b5090505061192a60405180807f444f43544f5200000000000000000000000000000000000000000000000000008152506006019050604051809103902088611391565b50505050505050565b600061195c8260008086815260200190815260200160002060000161234190919063ffffffff16565b905092915050565b600061198d8260008086815260200190815260200160002060000161235b90919063ffffffff16565b905092915050565b60006119d660405180807f444f43544f5200000000000000000000000000000000000000000000000000008152506006019050604051809103902083611964565b9050919050565b600260008273ffffffffffffffffffffffffffffffffffffffff1673ffffffffffffffffffffffffffffffffffffffff168152602001908152602001600020600080820160006101000a81549073ffffffffffffffffffffffffffffffffffffffff0219169055600182016000611a54919061268f565b600282016000611a64919061268f565b600382016000611a74919061268f565b600482016000611a84919061268f565b505050565b6000801b81565b60405180807f50415449454e54000000000000000000000000000000000000000000000000008152506007019050604051809103902081565b60006060806060808573ffffffffffffffffffffffffffffffffffffffff16600260008873ffffffffffffffffffffffffffffffffffffffff1673ffffffffffffffffffffffffffffffffffffffff16815260200190815260200160002060000160009054906101000a900473ffffffffffffffffffffffffffffffffffffffff1673ffffffffffffffffffffffffffffffffffffffff161415611f5157600260008773ffffffffffffffffffffffffffffffffffffffff1673ffffffffffffffffffffffffffffffffffffffff16815260200190815260200160002060000160009054906101000a900473ffffffffffffffffffffffffffffffffffffffff16600260008873ffffffffffffffffffffffffffffffffffffffff1673ffffffffffffffffffffffffffffffffffffffff168152602001908152602001600020600101600260008973ffffffffffffffffffffffffffffffffffffffff1673ffffffffffffffffffffffffffffffffffffffff168152602001908152602001600020600201600260008a73ffffffffffffffffffffffffffffffffffffffff1673ffffffffffffffffffffffffffffffffffffffff168152602001908152602001600020600301600260008b73ffffffffffffffffffffffffffffffffffffffff1673ffffffffffffffffffffffffffffffffffffffff168152602001908152602001600020600401838054600181600116156101000203166002900480601f016020809104026020016040519081016040528092919081815260200182805460018160011615610100020316600290048015611d675780601f10611d3c57610100808354040283529160200191611d67565b820191906000526020600020905b815481529060010190602001808311611d4a57829003601f168201915b50505050509350828054600181600116156101000203166002900480601f016020809104026020016040519081016040528092919081815260200182805460018160011615610100020316600290048015611e035780601f10611dd857610100808354040283529160200191611e03565b820191906000526020600020905b815481529060010190602001808311611de657829003601f168201915b50505050509250818054600181600116156101000203166002900480601f016020809104026020016040519081016040528092919081815260200182805460018160011615610100020316600290048015611e9f5780601f10611e7457610100808354040283529160200191611e9f565b820191906000526020600020905b815481529060010190602001808311611e8257829003601f168201915b50505050509150808054600181600116156101000203166002900480601f016020809104026020016040519081016040528092919081815260200182805460018160011615610100020316600290048015611f3b5780601f10611f1057610100808354040283529160200191611f3b565b820191906000526020600020905b815481529060010190602001808311611f1e57829003601f168201915b5050505050905094509450945094509450611fbf565b6040517f08c379a00000000000000000000000000000000000000000000000000000000081526004018080602001828103825260168152602001807f50617469656e7420646f6573206e6f742065786973740000000000000000000081525060200191505060405180910390fd5b91939590929450565b6000611fe760008084815260200190815260200160002060000161238b565b9050919050565b6120146000808481526020019081526020016000206002015461200f612213565b611964565b612069576040517f08c379a00000000000000000000000000000000000000000000000000000000081526004018080602001828103825260308152602001806127ce6030913960400191505060405180910390fd5b61207382826122ae565b5050565b60405180807f444f43544f5200000000000000000000000000000000000000000000000000008152506006019050604051809103902081565b83600260008773ffffffffffffffffffffffffffffffffffffffff1673ffffffffffffffffffffffffffffffffffffffff16815260200190815260200160002060010190805190602001906121069291906126d7565b5082600260008773ffffffffffffffffffffffffffffffffffffffff1673ffffffffffffffffffffffffffffffffffffffff168152602001908152602001600020600201908051906020019061215d9291906126d7565b5081600260008773ffffffffffffffffffffffffffffffffffffffff1673ffffffffffffffffffffffffffffffffffffffff16815260200190815260200160002060030190805190602001906121b49291906126d7565b5080600260008773ffffffffffffffffffffffffffffffffffffffff1673ffffffffffffffffffffffffffffffffffffffff168152602001908152602001600020600401908051906020019061220b9291906126d7565b505050505050565b600033905090565b612242816000808581526020019081526020016000206000016123a090919063ffffffff16565b156122aa5761224f612213565b73ffffffffffffffffffffffffffffffffffffffff168173ffffffffffffffffffffffffffffffffffffffff16837f2f8788117e7eff1d82e926ec794901d17c78024a50270940304540a733656f0d60405160405180910390a45b5050565b6122d5816000808581526020019081526020016000206000016123d090919063ffffffff16565b1561233d576122e2612213565b73ffffffffffffffffffffffffffffffffffffffff168173ffffffffffffffffffffffffffffffffffffffff16837ff6391f5c32d9c69d2a47ea670b442974b53935d1edc7fd64eb21e047a839171b60405160405180910390a45b5050565b60006123508360000183612400565b60001c905092915050565b6000612383836000018373ffffffffffffffffffffffffffffffffffffffff1660001b612483565b905092915050565b6000612399826000016124a6565b9050919050565b60006123c8836000018373ffffffffffffffffffffffffffffffffffffffff1660001b6124b7565b905092915050565b60006123f8836000018373ffffffffffffffffffffffffffffffffffffffff1660001b612527565b905092915050565b600081836000018054905011612461576040517f08c379a000000000000000000000000000000000000000000000000000000000815260040180806020018281038252602281526020018061277d6022913960400191505060405180910390fd5b82600001828154811061247057fe5b9060005260206000200154905092915050565b600080836001016000848152602001908152602001600020541415905092915050565b600081600001805490509050919050565b60006124c38383612483565b61251c578260000182908060018154018082558091505060019003906000526020600020016000909190919091505582600001805490508360010160008481526020019081526020016000208190555060019050612521565b600090505b92915050565b60008083600101600084815260200190815260200160002054905060008114612603576000600182039050600060018660000180549050039050600086600001828154811061257257fe5b906000526020600020015490508087600001848154811061258f57fe5b90600052602060002001819055506001830187600101600083815260200190815260200160002081905550866000018054806125c757fe5b60019003818190600052602060002001600090559055866001016000878152602001908152602001600020600090556001945050505050612609565b60009150505b92915050565b828054600181600116156101000203166002900490600052602060002090601f016020900481019282601f1061265057805160ff191683800117855561267e565b8280016001018555821561267e579182015b8281111561267d578251825591602001919060010190612662565b5b50905061268b9190612757565b5090565b50805460018160011615610100020316600290046000825580601f106126b557506126d4565b601f0160209004906000526020600020908101906126d39190612757565b5b50565b828054600181600116156101000203166002900490600052602060002090601f016020900481019282601f1061271857805160ff1916838001178555612746565b82800160010185558215612746579182015b8281111561274557825182559160200191906001019061272a565b5b5090506127539190612757565b5090565b61277991905b8082111561277557600081600090555060010161275d565b5090565b9056fe456e756d657261626c655365743a20696e646578206f7574206f6620626f756e6473416363657373436f6e74726f6c3a2073656e646572206d75737420626520616e2061646d696e20746f206772616e74416363657373436f6e74726f6c3a2073656e646572206d75737420626520616e2061646d696e20746f207265766f6b65416363657373436f6e74726f6c3a2063616e206f6e6c792072656e6f756e636520726f6c657320666f722073656c66a2646970667358221220bf5dc6a51b35ea1fdb3430a14f6b69fd9024327c8783fd696efcaa06ee219a4564736f6c63430006020033",
  "source": "pragma solidity ^0.6.0;\nimport \"@openzeppelin/contracts/access/AccessControl.sol\";\n\ncontract Ehr is AccessControl{\n\n    bytes32 public constant PATIENT_ROLE = keccak256(\"PATIENT\");\n    bytes32 public constant DOCTOR_ROLE = keccak256(\"DOCTOR\");\n    address root = msg.sender;\n\n    constructor () public {\n        _setupRole(DEFAULT_ADMIN_ROLE, root);\n        _setRoleAdmin(DOCTOR_ROLE, DEFAULT_ADMIN_ROLE);\n    }\n\n    modifier onlyAdmin() {\n      require(isAdmin(msg.sender), \"Restricted to admins.\");\n      _;\n    }\n\n    modifier onlyDoctor() {\n      require(isDoctor(msg.sender), \"Restricted to Doctors.\");\n      _;\n    }\n\n    function isAdmin(address account) public virtual view returns (bool) {\n      return hasRole(DEFAULT_ADMIN_ROLE, account);\n    }\n\n    function isDoctor(address account) public virtual view returns (bool) {\n      return hasRole(DOCTOR_ROLE, account);\n    }\n\n    function addDoctorRole(address account) public virtual onlyAdmin {\n      grantRole(DOCTOR_ROLE, account);\n    }\n\n    struct PatientDetails {\n        address addr;\n        string name;\n        string email;\n        string password;\n        string patientHash;\n    }\n\n    struct DoctorDetails {\n        address addr;\n        string name;\n        string email;\n        string password;\n    }\n\n    mapping (address => PatientDetails) patients;\n    mapping (address => DoctorDetails) doctors;\n\n    function newPatient(\n        address _address,\n        string calldata _name,\n        string calldata _email,\n        string calldata _password,\n        string calldata _patientHash) external {\n        patients[_address] = PatientDetails(_address,\n                                            _name,\n                                            _email,\n                                            _password,\n                                            _patientHash); \n    }\n\n    function newDoctor(\n        address _address,\n        string calldata _name,\n        string calldata _email,\n        string calldata _password) external {\n            doctors[_address] = DoctorDetails(_address,\n                                            _name,\n                                            _email,\n                                            _password);\n        grantRole(DOCTOR_ROLE, _address);\n    }\n    \n\n    function getPatient(address _address) public view returns (address, string memory, string memory, string memory, string memory){\n      if(patients[_address].addr == _address){\n        return (patients[_address].addr,\n                patients[_address].name,\n                patients[_address].email,\n                patients[_address].password,\n                patients[_address].patientHash);\n       } \n      revert('Patient does not exist');\n    }\n\n    function getDoctor(address _address) public view returns (address, string memory, string memory, string memory){\n        if(doctors[_address].addr == _address){\n          return (doctors[_address].addr,\n                doctors[_address].name,\n                doctors[_address].email,\n                doctors[_address].password);\n        }\n        revert('Doctor does not exist');\n            \n    }\n\n    function updatePatient(address _address, \n                          string memory _name,\n                          string memory _email,\n                          string memory _password,\n                          string memory _patientHash) public {\n      patients[_address].name = _name;\n      patients[_address].email = _email;\n      patients[_address].password = _password;\n      patients[_address].patientHash = _patientHash;\n    }\n\n    function destroyPatient(address _address) public {\n        delete patients[_address];\n    }\n\n\n\n}",
  "sourcePath": "/home/nigel/blockchain_ehr_app/src/contracts/Ehr.sol",
  "compiler": {
    "name": "solc",
    "version": "0.6.2+commit.bacdbe57.Emscripten.clang"
  },
  "schemaVersion": "3.2.0",
  "updatedAt": "2020-07-16T09:37:09.184Z",
  "networkType": "ethereum",
  "devdoc": {
    "methods": {
      "getRoleAdmin(bytes32)": {
        "details": "Returns the admin role that controls `role`. See {grantRole} and {revokeRole}.     * To change a role's admin, use {_setRoleAdmin}."
      },
      "getRoleMember(bytes32,uint256)": {
        "details": "Returns one of the accounts that have `role`. `index` must be a value between 0 and {getRoleMemberCount}, non-inclusive.     * Role bearers are not sorted in any particular way, and their ordering may change at any point.     * WARNING: When using {getRoleMember} and {getRoleMemberCount}, make sure you perform all queries on the same block. See the following https://forum.openzeppelin.com/t/iterating-over-elements-on-enumerableset-in-openzeppelin-contracts/2296[forum post] for more information."
      },
      "getRoleMemberCount(bytes32)": {
        "details": "Returns the number of accounts that have `role`. Can be used together with {getRoleMember} to enumerate all bearers of a role."
      },
      "grantRole(bytes32,address)": {
        "details": "Grants `role` to `account`.     * If `account` had not been already granted `role`, emits a {RoleGranted} event.     * Requirements:     * - the caller must have ``role``'s admin role."
      },
      "hasRole(bytes32,address)": {
        "details": "Returns `true` if `account` has been granted `role`."
      },
      "renounceRole(bytes32,address)": {
        "details": "Revokes `role` from the calling account.     * Roles are often managed via {grantRole} and {revokeRole}: this function's purpose is to provide a mechanism for accounts to lose their privileges if they are compromised (such as when a trusted device is misplaced).     * If the calling account had been granted `role`, emits a {RoleRevoked} event.     * Requirements:     * - the caller must be `account`."
      },
      "revokeRole(bytes32,address)": {
        "details": "Revokes `role` from `account`.     * If `account` had been granted `role`, emits a {RoleRevoked} event.     * Requirements:     * - the caller must have ``role``'s admin role."
      }
    }
  },
  "userdoc": {
    "methods": {}
  }
}