{
  "contractName": "Ehr",
  "abi": [
    {
      "inputs": [],
      "stateMutability": "nonpayable",
      "type": "constructor"
    },
    {
      "anonymous": false,
      "inputs": [
        {
          "indexed": true,
          "internalType": "bytes32",
          "name": "role",
          "type": "bytes32"
        },
        {
          "indexed": true,
          "internalType": "bytes32",
          "name": "previousAdminRole",
          "type": "bytes32"
        },
        {
          "indexed": true,
          "internalType": "bytes32",
          "name": "newAdminRole",
          "type": "bytes32"
        }
      ],
      "name": "RoleAdminChanged",
      "type": "event"
    },
    {
      "anonymous": false,
      "inputs": [
        {
          "indexed": true,
          "internalType": "bytes32",
          "name": "role",
          "type": "bytes32"
        },
        {
          "indexed": true,
          "internalType": "address",
          "name": "account",
          "type": "address"
        },
        {
          "indexed": true,
          "internalType": "address",
          "name": "sender",
          "type": "address"
        }
      ],
      "name": "RoleGranted",
      "type": "event"
    },
    {
      "anonymous": false,
      "inputs": [
        {
          "indexed": true,
          "internalType": "bytes32",
          "name": "role",
          "type": "bytes32"
        },
        {
          "indexed": true,
          "internalType": "address",
          "name": "account",
          "type": "address"
        },
        {
          "indexed": true,
          "internalType": "address",
          "name": "sender",
          "type": "address"
        }
      ],
      "name": "RoleRevoked",
      "type": "event"
    },
    {
      "inputs": [],
      "name": "DEFAULT_ADMIN_ROLE",
      "outputs": [
        {
          "internalType": "bytes32",
          "name": "",
          "type": "bytes32"
        }
      ],
      "stateMutability": "view",
      "type": "function",
      "constant": true
    },
    {
      "inputs": [],
      "name": "PATIENT_ROLE",
      "outputs": [
        {
          "internalType": "bytes32",
          "name": "",
          "type": "bytes32"
        }
      ],
      "stateMutability": "view",
      "type": "function",
      "constant": true
    },
    {
      "inputs": [
        {
          "internalType": "bytes32",
          "name": "role",
          "type": "bytes32"
        }
      ],
      "name": "getRoleAdmin",
      "outputs": [
        {
          "internalType": "bytes32",
          "name": "",
          "type": "bytes32"
        }
      ],
      "stateMutability": "view",
      "type": "function",
      "constant": true
    },
    {
      "inputs": [
        {
          "internalType": "bytes32",
          "name": "role",
          "type": "bytes32"
        },
        {
          "internalType": "uint256",
          "name": "index",
          "type": "uint256"
        }
      ],
      "name": "getRoleMember",
      "outputs": [
        {
          "internalType": "address",
          "name": "",
          "type": "address"
        }
      ],
      "stateMutability": "view",
      "type": "function",
      "constant": true
    },
    {
      "inputs": [
        {
          "internalType": "bytes32",
          "name": "role",
          "type": "bytes32"
        }
      ],
      "name": "getRoleMemberCount",
      "outputs": [
        {
          "internalType": "uint256",
          "name": "",
          "type": "uint256"
        }
      ],
      "stateMutability": "view",
      "type": "function",
      "constant": true
    },
    {
      "inputs": [
        {
          "internalType": "bytes32",
          "name": "role",
          "type": "bytes32"
        },
        {
          "internalType": "address",
          "name": "account",
          "type": "address"
        }
      ],
      "name": "grantRole",
      "outputs": [],
      "stateMutability": "nonpayable",
      "type": "function"
    },
    {
      "inputs": [
        {
          "internalType": "bytes32",
          "name": "role",
          "type": "bytes32"
        },
        {
          "internalType": "address",
          "name": "account",
          "type": "address"
        }
      ],
      "name": "hasRole",
      "outputs": [
        {
          "internalType": "bool",
          "name": "",
          "type": "bool"
        }
      ],
      "stateMutability": "view",
      "type": "function",
      "constant": true
    },
    {
      "inputs": [
        {
          "internalType": "bytes32",
          "name": "role",
          "type": "bytes32"
        },
        {
          "internalType": "address",
          "name": "account",
          "type": "address"
        }
      ],
      "name": "renounceRole",
      "outputs": [],
      "stateMutability": "nonpayable",
      "type": "function"
    },
    {
      "inputs": [
        {
          "internalType": "bytes32",
          "name": "role",
          "type": "bytes32"
        },
        {
          "internalType": "address",
          "name": "account",
          "type": "address"
        }
      ],
      "name": "revokeRole",
      "outputs": [],
      "stateMutability": "nonpayable",
      "type": "function"
    },
    {
      "inputs": [
        {
          "internalType": "address",
          "name": "account",
          "type": "address"
        }
      ],
      "name": "isUser",
      "outputs": [
        {
          "internalType": "bool",
          "name": "",
          "type": "bool"
        }
      ],
      "stateMutability": "view",
      "type": "function",
      "constant": true
    },
    {
      "inputs": [
        {
          "internalType": "address",
          "name": "account",
          "type": "address"
        }
      ],
      "name": "isAdmin",
      "outputs": [
        {
          "internalType": "bool",
          "name": "",
          "type": "bool"
        }
      ],
      "stateMutability": "view",
      "type": "function",
      "constant": true
    },
    {
      "inputs": [
        {
          "internalType": "address",
          "name": "account",
          "type": "address"
        }
      ],
      "name": "isPatient",
      "outputs": [
        {
          "internalType": "bool",
          "name": "",
          "type": "bool"
        }
      ],
      "stateMutability": "view",
      "type": "function",
      "constant": true
    },
    {
      "inputs": [
        {
          "internalType": "address",
          "name": "account",
          "type": "address"
        }
      ],
      "name": "addPatientRole",
      "outputs": [],
      "stateMutability": "nonpayable",
      "type": "function"
    },
    {
      "inputs": [
        {
          "internalType": "address",
          "name": "_address",
          "type": "address"
        },
        {
          "internalType": "string",
          "name": "_name",
          "type": "string"
        },
        {
          "internalType": "string",
          "name": "_email",
          "type": "string"
        },
        {
          "internalType": "string",
          "name": "_password",
          "type": "string"
        },
        {
          "internalType": "string",
          "name": "_patientHash",
          "type": "string"
        }
      ],
      "name": "newPatient",
      "outputs": [],
      "stateMutability": "nonpayable",
      "type": "function"
    },
    {
      "inputs": [
        {
          "internalType": "address",
          "name": "_address",
          "type": "address"
        },
        {
          "internalType": "string",
          "name": "_name",
          "type": "string"
        },
        {
          "internalType": "string",
          "name": "_email",
          "type": "string"
        }
      ],
      "name": "newDoctor",
      "outputs": [],
      "stateMutability": "nonpayable",
      "type": "function"
    },
    {
      "inputs": [
        {
          "internalType": "address",
          "name": "_address",
          "type": "address"
        }
      ],
      "name": "getPatient",
      "outputs": [
        {
          "internalType": "address",
          "name": "",
          "type": "address"
        },
        {
          "internalType": "string",
          "name": "",
          "type": "string"
        },
        {
          "internalType": "string",
          "name": "",
          "type": "string"
        },
        {
          "internalType": "string",
          "name": "",
          "type": "string"
        },
        {
          "internalType": "string",
          "name": "",
          "type": "string"
        }
      ],
      "stateMutability": "view",
      "type": "function",
      "constant": true
    },
    {
      "inputs": [
        {
          "internalType": "address",
          "name": "_address",
          "type": "address"
        }
      ],
      "name": "getDoctor",
      "outputs": [
        {
          "internalType": "address",
          "name": "",
          "type": "address"
        },
        {
          "internalType": "string",
          "name": "",
          "type": "string"
        },
        {
          "internalType": "string",
          "name": "",
          "type": "string"
        }
      ],
      "stateMutability": "view",
      "type": "function",
      "constant": true
    },
    {
      "inputs": [
        {
          "internalType": "address",
          "name": "_address",
          "type": "address"
        },
        {
          "internalType": "string",
          "name": "_name",
          "type": "string"
        },
        {
          "internalType": "string",
          "name": "_email",
          "type": "string"
        },
        {
          "internalType": "string",
          "name": "_password",
          "type": "string"
        },
        {
          "internalType": "string",
          "name": "_patientHash",
          "type": "string"
        }
      ],
      "name": "updatePatient",
      "outputs": [],
      "stateMutability": "nonpayable",
      "type": "function"
    },
    {
      "inputs": [
        {
          "internalType": "address",
          "name": "_address",
          "type": "address"
        }
      ],
      "name": "destroyPatient",
      "outputs": [],
      "stateMutability": "nonpayable",
      "type": "function"
    }
  ],
  "bytecode": "0x608060405233600160006101000a81548173ffffffffffffffffffffffffffffffffffffffff021916908373ffffffffffffffffffffffffffffffffffffffff1602179055503480156200005257600080fd5b506200008a6000801b600160009054906101000a900473ffffffffffffffffffffffffffffffffffffffff16620000da60201b60201c565b620000d460405180807f50415449454e5400000000000000000000000000000000000000000000000000815250600701905060405180910390206000801b620000f060201b60201c565b620002d2565b620000ec82826200015260201b60201c565b5050565b8060008084815260200190815260200160002060020154837fbd79b86ffe0ab8e8776151514217cd7cacd52c909f66475c3af44e129f0b00ff60405160405180910390a480600080848152602001908152602001600020600201819055505050565b6200018081600080858152602001908152602001600020600001620001f560201b620024b91790919060201c565b15620001f157620001966200022d60201b60201c565b73ffffffffffffffffffffffffffffffffffffffff168173ffffffffffffffffffffffffffffffffffffffff16837f2f8788117e7eff1d82e926ec794901d17c78024a50270940304540a733656f0d60405160405180910390a45b5050565b600062000225836000018373ffffffffffffffffffffffffffffffffffffffff1660001b6200023560201b60201c565b905092915050565b600033905090565b6000620002498383620002af60201b60201c565b620002a4578260000182908060018154018082558091505060019003906000526020600020016000909190919091505582600001805490508360010160008481526020019081526020016000208190555060019050620002a9565b600090505b92915050565b600080836001016000848152602001908152602001600020541415905092915050565b6129ba80620002e26000396000f3fe608060405234801561001057600080fd5b50600436106101215760003560e01c80639010d07c116100ad578063b5368e2011610071578063b5368e2014610858578063ca15c87314610a8c578063d547741f14610ace578063f3c1f1a314610b1c578063ffa62f5a14610b6057610121565b80639010d07c146106fa57806391d14854146107725780639a6f10ec146107d8578063a217fddf1461081c578063ac5cb97d1461083a57610121565b806336568abe116100f457806336568abe1461036e5780634209fff1146103bc57806378e0aa74146104185780638ad418bb146105b05780638f9c79ed1461069e57610121565b8063248a9ca31461012657806324d7806c146101685780632f04e064146101c45780632f2ff15d14610320575b600080fd5b6101526004803603602081101561013c57600080fd5b8101908080359060200190929190505050610e00565b6040518082815260200191505060405180910390f35b6101aa6004803603602081101561017e57600080fd5b81019080803573ffffffffffffffffffffffffffffffffffffffff169060200190929190505050610e1f565b604051808215151515815260200191505060405180910390f35b610206600480360360208110156101da57600080fd5b81019080803573ffffffffffffffffffffffffffffffffffffffff169060200190929190505050610e35565b604051808473ffffffffffffffffffffffffffffffffffffffff1673ffffffffffffffffffffffffffffffffffffffff1681526020018060200180602001838103835285818151815260200191508051906020019080838360005b8381101561027c578082015181840152602081019050610261565b50505050905090810190601f1680156102a95780820380516001836020036101000a031916815260200191505b50838103825284818151815260200191508051906020019080838360005b838110156102e25780820151818401526020810190506102c7565b50505050905090810190601f16801561030f5780820380516001836020036101000a031916815260200191505b509550505050505060405180910390f35b61036c6004803603604081101561033657600080fd5b8101908080359060200190929190803573ffffffffffffffffffffffffffffffffffffffff1690602001909291905050506111ea565b005b6103ba6004803603604081101561038457600080fd5b8101908080359060200190929190803573ffffffffffffffffffffffffffffffffffffffff169060200190929190505050611273565b005b6103fe600480360360208110156103d257600080fd5b81019080803573ffffffffffffffffffffffffffffffffffffffff16906020019092919050505061130c565b604051808215151515815260200191505060405180910390f35b6105ae600480360360a081101561042e57600080fd5b81019080803573ffffffffffffffffffffffffffffffffffffffff1690602001909291908035906020019064010000000081111561046b57600080fd5b82018360208201111561047d57600080fd5b8035906020019184600183028401116401000000008311171561049f57600080fd5b9091929391929390803590602001906401000000008111156104c057600080fd5b8201836020820111156104d257600080fd5b803590602001918460018302840111640100000000831117156104f457600080fd5b90919293919293908035906020019064010000000081111561051557600080fd5b82018360208201111561052757600080fd5b8035906020019184600183028401116401000000008311171561054957600080fd5b90919293919293908035906020019064010000000081111561056a57600080fd5b82018360208201111561057c57600080fd5b8035906020019184600183028401116401000000008311171561059e57600080fd5b9091929391929390505050611380565b005b61069c600480360360608110156105c657600080fd5b81019080803573ffffffffffffffffffffffffffffffffffffffff1690602001909291908035906020019064010000000081111561060357600080fd5b82018360208201111561061557600080fd5b8035906020019184600183028401116401000000008311171561063757600080fd5b90919293919293908035906020019064010000000081111561065857600080fd5b82018360208201111561066a57600080fd5b8035906020019184600183028401116401000000008311171561068c57600080fd5b9091929391929390505050611659565b005b6106e0600480360360208110156106b457600080fd5b81019080803573ffffffffffffffffffffffffffffffffffffffff169060200190929190505050611864565b604051808215151515815260200191505060405180910390f35b6107306004803603604081101561071057600080fd5b8101908080359060200190929190803590602001909291905050506118ac565b604051808273ffffffffffffffffffffffffffffffffffffffff1673ffffffffffffffffffffffffffffffffffffffff16815260200191505060405180910390f35b6107be6004803603604081101561078857600080fd5b8101908080359060200190929190803573ffffffffffffffffffffffffffffffffffffffff1690602001909291905050506118dd565b604051808215151515815260200191505060405180910390f35b61081a600480360360208110156107ee57600080fd5b81019080803573ffffffffffffffffffffffffffffffffffffffff16906020019092919050505061190e565b005b610824611a35565b6040518082815260200191505060405180910390f35b610842611a3c565b6040518082815260200191505060405180910390f35b61089a6004803603602081101561086e57600080fd5b81019080803573ffffffffffffffffffffffffffffffffffffffff169060200190929190505050611a75565b604051808673ffffffffffffffffffffffffffffffffffffffff1673ffffffffffffffffffffffffffffffffffffffff16815260200180602001806020018060200180602001858103855289818151815260200191508051906020019080838360005b838110156109185780820151818401526020810190506108fd565b50505050905090810190601f1680156109455780820380516001836020036101000a031916815260200191505b50858103845288818151815260200191508051906020019080838360005b8381101561097e578082015181840152602081019050610963565b50505050905090810190601f1680156109ab5780820380516001836020036101000a031916815260200191505b50858103835287818151815260200191508051906020019080838360005b838110156109e45780820151818401526020810190506109c9565b50505050905090810190601f168015610a115780820380516001836020036101000a031916815260200191505b50858103825286818151815260200191508051906020019080838360005b83811015610a4a578082015181840152602081019050610a2f565b50505050905090810190601f168015610a775780820380516001836020036101000a031916815260200191505b50995050505050505050505060405180910390f35b610ab860048036036020811015610aa257600080fd5b8101908080359060200190929190505050611fe2565b6040518082815260200191505060405180910390f35b610b1a60048036036040811015610ae457600080fd5b8101908080359060200190929190803573ffffffffffffffffffffffffffffffffffffffff169060200190929190505050612008565b005b610b5e60048036036020811015610b3257600080fd5b81019080803573ffffffffffffffffffffffffffffffffffffffff169060200190929190505050612091565b005b610dfe600480360360a0811015610b7657600080fd5b81019080803573ffffffffffffffffffffffffffffffffffffffff16906020019092919080359060200190640100000000811115610bb357600080fd5b820183602082011115610bc557600080fd5b80359060200191846001830284011164010000000083111715610be757600080fd5b91908080601f016020809104026020016040519081016040528093929190818152602001838380828437600081840152601f19601f82011690508083019250505050505050919291929080359060200190640100000000811115610c4a57600080fd5b820183602082011115610c5c57600080fd5b80359060200191846001830284011164010000000083111715610c7e57600080fd5b91908080601f016020809104026020016040519081016040528093929190818152602001838380828437600081840152601f19601f82011690508083019250505050505050919291929080359060200190640100000000811115610ce157600080fd5b820183602082011115610cf357600080fd5b80359060200191846001830284011164010000000083111715610d1557600080fd5b91908080601f016020809104026020016040519081016040528093929190818152602001838380828437600081840152601f19601f82011690508083019250505050505050919291929080359060200190640100000000811115610d7857600080fd5b820183602082011115610d8a57600080fd5b80359060200191846001830284011164010000000083111715610dac57600080fd5b91908080601f016020809104026020016040519081016040528093929190818152602001838380828437600081840152601f19601f82011690508083019250505050505050919291929050505061214e565b005b6000806000838152602001908152602001600020600201549050919050565b6000610e2e6000801b836118dd565b9050919050565b6000606080610e4333610e1f565b610eb5576040517f08c379a00000000000000000000000000000000000000000000000000000000081526004018080602001828103825260158152602001807f5265737472696374656420746f2061646d696e732e000000000000000000000081525060200191505060405180910390fd5b8373ffffffffffffffffffffffffffffffffffffffff16600360008673ffffffffffffffffffffffffffffffffffffffff1673ffffffffffffffffffffffffffffffffffffffff16815260200190815260200160002060000160009054906101000a900473ffffffffffffffffffffffffffffffffffffffff1673ffffffffffffffffffffffffffffffffffffffff16141561117557600360008573ffffffffffffffffffffffffffffffffffffffff1673ffffffffffffffffffffffffffffffffffffffff16815260200190815260200160002060000160009054906101000a900473ffffffffffffffffffffffffffffffffffffffff16600360008673ffffffffffffffffffffffffffffffffffffffff1673ffffffffffffffffffffffffffffffffffffffff168152602001908152602001600020600101600360008773ffffffffffffffffffffffffffffffffffffffff1673ffffffffffffffffffffffffffffffffffffffff168152602001908152602001600020600201818054600181600116156101000203166002900480601f0160208091040260200160405190810160405280929190818152602001828054600181600116156101000203166002900480156110c75780601f1061109c576101008083540402835291602001916110c7565b820191906000526020600020905b8154815290600101906020018083116110aa57829003601f168201915b50505050509150808054600181600116156101000203166002900480601f0160208091040260200160405190810160405280929190818152602001828054600181600116156101000203166002900480156111635780601f1061113857610100808354040283529160200191611163565b820191906000526020600020905b81548152906001019060200180831161114657829003601f168201915b505050505090509250925092506111e3565b6040517f08c379a00000000000000000000000000000000000000000000000000000000081526004018080602001828103825260158152602001807f446f63746f7220646f6573206e6f74206578697374000000000000000000000081525060200191505060405180910390fd5b9193909250565b6112106000808481526020019081526020016000206002015461120b61232c565b6118dd565b611265576040517f08c379a000000000000000000000000000000000000000000000000000000000815260040180806020018281038252602f8152602001806128b8602f913960400191505060405180910390fd5b61126f8282612334565b5050565b61127b61232c565b73ffffffffffffffffffffffffffffffffffffffff168173ffffffffffffffffffffffffffffffffffffffff16146112fe576040517f08c379a000000000000000000000000000000000000000000000000000000000815260040180806020018281038252602f815260200180612956602f913960400191505060405180910390fd5b61130882826123c7565b5050565b600061134d60405180807f50415449454e540000000000000000000000000000000000000000000000000081525060070190506040518091039020836118dd565b1561135b576001905061137b565b6113686000801b836118dd565b15611376576001905061137b565b600090505b919050565b61138933610e1f565b6113fb576040517f08c379a00000000000000000000000000000000000000000000000000000000081526004018080602001828103825260158152602001807f5265737472696374656420746f2061646d696e732e000000000000000000000081525060200191505060405180910390fd5b6040518060a001604052808a73ffffffffffffffffffffffffffffffffffffffff16815260200189898080601f016020809104026020016040519081016040528093929190818152602001838380828437600081840152601f19601f82011690508083019250505050505050815260200187878080601f016020809104026020016040519081016040528093929190818152602001838380828437600081840152601f19601f82011690508083019250505050505050815260200185858080601f016020809104026020016040519081016040528093929190818152602001838380828437600081840152601f19601f82011690508083019250505050505050815260200183838080601f016020809104026020016040519081016040528093929190818152602001838380828437600081840152601f19601f82011690508083019250505050505050815250600260008b73ffffffffffffffffffffffffffffffffffffffff1673ffffffffffffffffffffffffffffffffffffffff16815260200190815260200160002060008201518160000160006101000a81548173ffffffffffffffffffffffffffffffffffffffff021916908373ffffffffffffffffffffffffffffffffffffffff16021790555060208201518160010190805190602001906115ea929190612728565b506040820151816002019080519060200190611607929190612728565b506060820151816003019080519060200190611624929190612728565b506080820151816004019080519060200190611641929190612728565b5090505061164e89612091565b505050505050505050565b61166233610e1f565b6116d4576040517f08c379a00000000000000000000000000000000000000000000000000000000081526004018080602001828103825260158152602001807f5265737472696374656420746f2061646d696e732e000000000000000000000081525060200191505060405180910390fd5b60405180606001604052808673ffffffffffffffffffffffffffffffffffffffff16815260200185858080601f016020809104026020016040519081016040528093929190818152602001838380828437600081840152601f19601f82011690508083019250505050505050815260200183838080601f016020809104026020016040519081016040528093929190818152602001838380828437600081840152601f19601f82011690508083019250505050505050815250600360008773ffffffffffffffffffffffffffffffffffffffff1673ffffffffffffffffffffffffffffffffffffffff16815260200190815260200160002060008201518160000160006101000a81548173ffffffffffffffffffffffffffffffffffffffff021916908373ffffffffffffffffffffffffffffffffffffffff160217905550602082015181600101908051906020019061182f929190612728565b50604082015181600201908051906020019061184c929190612728565b5090505061185d6000801b866111ea565b5050505050565b60006118a560405180807f50415449454e540000000000000000000000000000000000000000000000000081525060070190506040518091039020836118dd565b9050919050565b60006118d58260008086815260200190815260200160002060000161245a90919063ffffffff16565b905092915050565b60006119068260008086815260200190815260200160002060000161247490919063ffffffff16565b905092915050565b61191733610e1f565b611989576040517f08c379a00000000000000000000000000000000000000000000000000000000081526004018080602001828103825260158152602001807f5265737472696374656420746f2061646d696e732e000000000000000000000081525060200191505060405180910390fd5b600260008273ffffffffffffffffffffffffffffffffffffffff1673ffffffffffffffffffffffffffffffffffffffff168152602001908152602001600020600080820160006101000a81549073ffffffffffffffffffffffffffffffffffffffff0219169055600182016000611a0091906127a8565b600282016000611a1091906127a8565b600382016000611a2091906127a8565b600482016000611a3091906127a8565b505050565b6000801b81565b60405180807f50415449454e54000000000000000000000000000000000000000000000000008152506007019050604051809103902081565b6000606080606080611a863361130c565b611af8576040517f08c379a000000000000000000000000000000000000000000000000000000000815260040180806020018281038252601e8152602001807f5265737472696374656420746f2072656769737465726564207573657273000081525060200191505060405180910390fd5b3373ffffffffffffffffffffffffffffffffffffffff16600260008873ffffffffffffffffffffffffffffffffffffffff1673ffffffffffffffffffffffffffffffffffffffff16815260200190815260200160002060000160009054906101000a900473ffffffffffffffffffffffffffffffffffffffff1673ffffffffffffffffffffffffffffffffffffffff161480611b995750611b9833610e1f565b5b15611f8857600260008773ffffffffffffffffffffffffffffffffffffffff1673ffffffffffffffffffffffffffffffffffffffff16815260200190815260200160002060000160009054906101000a900473ffffffffffffffffffffffffffffffffffffffff16600260008873ffffffffffffffffffffffffffffffffffffffff1673ffffffffffffffffffffffffffffffffffffffff168152602001908152602001600020600101600260008973ffffffffffffffffffffffffffffffffffffffff1673ffffffffffffffffffffffffffffffffffffffff168152602001908152602001600020600201600260008a73ffffffffffffffffffffffffffffffffffffffff1673ffffffffffffffffffffffffffffffffffffffff168152602001908152602001600020600301600260008b73ffffffffffffffffffffffffffffffffffffffff1673ffffffffffffffffffffffffffffffffffffffff168152602001908152602001600020600401838054600181600116156101000203166002900480601f016020809104026020016040519081016040528092919081815260200182805460018160011615610100020316600290048015611d9e5780601f10611d7357610100808354040283529160200191611d9e565b820191906000526020600020905b815481529060010190602001808311611d8157829003601f168201915b50505050509350828054600181600116156101000203166002900480601f016020809104026020016040519081016040528092919081815260200182805460018160011615610100020316600290048015611e3a5780601f10611e0f57610100808354040283529160200191611e3a565b820191906000526020600020905b815481529060010190602001808311611e1d57829003601f168201915b50505050509250818054600181600116156101000203166002900480601f016020809104026020016040519081016040528092919081815260200182805460018160011615610100020316600290048015611ed65780601f10611eab57610100808354040283529160200191611ed6565b820191906000526020600020905b815481529060010190602001808311611eb957829003601f168201915b50505050509150808054600181600116156101000203166002900480601f016020809104026020016040519081016040528092919081815260200182805460018160011615610100020316600290048015611f725780601f10611f4757610100808354040283529160200191611f72565b820191906000526020600020905b815481529060010190602001808311611f5557829003601f168201915b5050505050905094509450945094509450611fd9565b6040517f08c379a000000000000000000000000000000000000000000000000000000000815260040180806020018281038252603f815260200180612917603f913960400191505060405180910390fd5b91939590929450565b60006120016000808481526020019081526020016000206000016124a4565b9050919050565b61202e6000808481526020019081526020016000206002015461202961232c565b6118dd565b612083576040517f08c379a00000000000000000000000000000000000000000000000000000000081526004018080602001828103825260308152602001806128e76030913960400191505060405180910390fd5b61208d82826123c7565b5050565b61209a33610e1f565b61210c576040517f08c379a00000000000000000000000000000000000000000000000000000000081526004018080602001828103825260158152602001807f5265737472696374656420746f2061646d696e732e000000000000000000000081525060200191505060405180910390fd5b61214b60405180807f50415449454e540000000000000000000000000000000000000000000000000081525060070190506040518091039020826111ea565b50565b61215733610e1f565b6121c9576040517f08c379a00000000000000000000000000000000000000000000000000000000081526004018080602001828103825260158152602001807f5265737472696374656420746f2061646d696e732e000000000000000000000081525060200191505060405180910390fd5b83600260008773ffffffffffffffffffffffffffffffffffffffff1673ffffffffffffffffffffffffffffffffffffffff168152602001908152602001600020600101908051906020019061221f9291906127f0565b5082600260008773ffffffffffffffffffffffffffffffffffffffff1673ffffffffffffffffffffffffffffffffffffffff16815260200190815260200160002060020190805190602001906122769291906127f0565b5081600260008773ffffffffffffffffffffffffffffffffffffffff1673ffffffffffffffffffffffffffffffffffffffff16815260200190815260200160002060030190805190602001906122cd9291906127f0565b5080600260008773ffffffffffffffffffffffffffffffffffffffff1673ffffffffffffffffffffffffffffffffffffffff16815260200190815260200160002060040190805190602001906123249291906127f0565b505050505050565b600033905090565b61235b816000808581526020019081526020016000206000016124b990919063ffffffff16565b156123c35761236861232c565b73ffffffffffffffffffffffffffffffffffffffff168173ffffffffffffffffffffffffffffffffffffffff16837f2f8788117e7eff1d82e926ec794901d17c78024a50270940304540a733656f0d60405160405180910390a45b5050565b6123ee816000808581526020019081526020016000206000016124e990919063ffffffff16565b15612456576123fb61232c565b73ffffffffffffffffffffffffffffffffffffffff168173ffffffffffffffffffffffffffffffffffffffff16837ff6391f5c32d9c69d2a47ea670b442974b53935d1edc7fd64eb21e047a839171b60405160405180910390a45b5050565b60006124698360000183612519565b60001c905092915050565b600061249c836000018373ffffffffffffffffffffffffffffffffffffffff1660001b61259c565b905092915050565b60006124b2826000016125bf565b9050919050565b60006124e1836000018373ffffffffffffffffffffffffffffffffffffffff1660001b6125d0565b905092915050565b6000612511836000018373ffffffffffffffffffffffffffffffffffffffff1660001b612640565b905092915050565b60008183600001805490501161257a576040517f08c379a00000000000000000000000000000000000000000000000000000000081526004018080602001828103825260228152602001806128966022913960400191505060405180910390fd5b82600001828154811061258957fe5b9060005260206000200154905092915050565b600080836001016000848152602001908152602001600020541415905092915050565b600081600001805490509050919050565b60006125dc838361259c565b61263557826000018290806001815401808255809150506001900390600052602060002001600090919091909150558260000180549050836001016000848152602001908152602001600020819055506001905061263a565b600090505b92915050565b6000808360010160008481526020019081526020016000205490506000811461271c576000600182039050600060018660000180549050039050600086600001828154811061268b57fe5b90600052602060002001549050808760000184815481106126a857fe5b90600052602060002001819055506001830187600101600083815260200190815260200160002081905550866000018054806126e057fe5b60019003818190600052602060002001600090559055866001016000878152602001908152602001600020600090556001945050505050612722565b60009150505b92915050565b828054600181600116156101000203166002900490600052602060002090601f016020900481019282601f1061276957805160ff1916838001178555612797565b82800160010185558215612797579182015b8281111561279657825182559160200191906001019061277b565b5b5090506127a49190612870565b5090565b50805460018160011615610100020316600290046000825580601f106127ce57506127ed565b601f0160209004906000526020600020908101906127ec9190612870565b5b50565b828054600181600116156101000203166002900490600052602060002090601f016020900481019282601f1061283157805160ff191683800117855561285f565b8280016001018555821561285f579182015b8281111561285e578251825591602001919060010190612843565b5b50905061286c9190612870565b5090565b61289291905b8082111561288e576000816000905550600101612876565b5090565b9056fe456e756d657261626c655365743a20696e646578206f7574206f6620626f756e6473416363657373436f6e74726f6c3a2073656e646572206d75737420626520616e2061646d696e20746f206772616e74416363657373436f6e74726f6c3a2073656e646572206d75737420626520616e2061646d696e20746f207265766f6b6550617469656e7420646f6573206e6f74206578697374206f7220796f7520646f206e6f7420686176652061636365737320746f2074686973207265636f7264416363657373436f6e74726f6c3a2063616e206f6e6c792072656e6f756e636520726f6c657320666f722073656c66a2646970667358221220db0017c5f0f6acbbd5f17344392c13a28fcbb00793e882440e3763ca999dd3f264736f6c63430006020033",
  "source": "pragma solidity ^0.6.0;\nimport \"@openzeppelin/contracts/access/AccessControl.sol\";\n\ncontract Ehr is AccessControl{\n\n    bytes32 public constant PATIENT_ROLE = keccak256(\"PATIENT\");\n    address root = msg.sender;\n\n    constructor () public {\n        _setupRole(DEFAULT_ADMIN_ROLE, root);    \n        _setRoleAdmin(PATIENT_ROLE, DEFAULT_ADMIN_ROLE);\n       \n    }\n\n    modifier onlyAdmin() {\n      require(isAdmin(msg.sender), \"Restricted to admins.\");\n      _;\n    }\n\n    modifier onlyAdminPatient(){\n      require(isUser(msg.sender), \"Restricted to registered users\");\n     \n      _;\n    }\n    // To allow doctors and the patient who owns the record access their data\n    function isUser(address account) public virtual view returns (bool) {\n      if(hasRole(PATIENT_ROLE, account)){\n        return true;\n      } else if(hasRole(DEFAULT_ADMIN_ROLE, account)) {\n        return true;\n      } else {\n        return false;\n      }\n    }\n\n    function isAdmin(address account) public virtual view returns (bool) {\n      return hasRole(DEFAULT_ADMIN_ROLE, account);\n    }\n\n    function isPatient(address account) public virtual view returns (bool) {\n      return hasRole(PATIENT_ROLE, account);\n    }\n\n    function addPatientRole(address account) public virtual onlyAdmin {\n      grantRole(PATIENT_ROLE, account);\n    }\n\n    struct PatientDetails {\n        address addr;\n        string name;\n        string email;\n        string password;\n        string patientHash;\n    }\n\n    struct DoctorDetails {\n        address addr;\n        string name;\n        string email;\n    }\n\n    mapping (address => PatientDetails) patients;\n    mapping (address => DoctorDetails) doctors;\n\n    function newPatient(\n        address _address,\n        string calldata _name,\n        string calldata _email,\n        string calldata _password,\n        string calldata _patientHash) external onlyAdmin {\n        patients[_address] = PatientDetails(_address,\n                                            _name,\n                                            _email,\n                                            _password,\n                                            _patientHash); \n        addPatientRole(_address);\n    }\n\n    function newDoctor(\n        address _address,\n        string calldata _name,\n        string calldata _email) external onlyAdmin {\n            doctors[_address] = DoctorDetails(_address,\n                                            _name,\n                                            _email);\n        grantRole(DEFAULT_ADMIN_ROLE, _address);\n    }\n    \n\n    function getPatient(address _address) public view onlyAdminPatient returns (address, string memory, string memory, string memory, string memory){\n      if(patients[_address].addr == msg.sender || isAdmin(msg.sender)){\n        return (patients[_address].addr,\n                patients[_address].name,\n                patients[_address].email,\n                patients[_address].password,\n                patients[_address].patientHash);\n       } \n      revert('Patient does not exist or you do not have access to this record');\n       \n\n    }\n\n    function getDoctor(address _address) public view onlyAdmin returns(address, string memory, string memory){\n        if(doctors[_address].addr == _address){\n          return (doctors[_address].addr,\n                doctors[_address].name,\n                doctors[_address].email);\n        }\n        revert('Doctor does not exist');\n            \n    }\n\n    function updatePatient(address _address, \n                          string memory _name,\n                          string memory _email,\n                          string memory _password,\n                          string memory _patientHash) public onlyAdmin {\n      patients[_address].name = _name;\n      patients[_address].email = _email;\n      patients[_address].password = _password;\n      patients[_address].patientHash = _patientHash;\n    }\n\n    function destroyPatient(address _address) public onlyAdmin {\n        delete patients[_address];\n    }\n\n\n\n}",
  "sourcePath": "/home/nigel/blockchain_ehr_app/src/contracts/Ehr.sol",
  "compiler": {
    "name": "solc",
    "version": "0.6.2+commit.bacdbe57.Emscripten.clang"
  },
  "schemaVersion": "3.2.0",
  "updatedAt": "2020-07-29T14:53:22.329Z",
  "networkType": "ethereum",
  "devdoc": {
    "methods": {
      "getRoleAdmin(bytes32)": {
        "details": "Returns the admin role that controls `role`. See {grantRole} and {revokeRole}.     * To change a role's admin, use {_setRoleAdmin}."
      },
      "getRoleMember(bytes32,uint256)": {
        "details": "Returns one of the accounts that have `role`. `index` must be a value between 0 and {getRoleMemberCount}, non-inclusive.     * Role bearers are not sorted in any particular way, and their ordering may change at any point.     * WARNING: When using {getRoleMember} and {getRoleMemberCount}, make sure you perform all queries on the same block. See the following https://forum.openzeppelin.com/t/iterating-over-elements-on-enumerableset-in-openzeppelin-contracts/2296[forum post] for more information."
      },
      "getRoleMemberCount(bytes32)": {
        "details": "Returns the number of accounts that have `role`. Can be used together with {getRoleMember} to enumerate all bearers of a role."
      },
      "grantRole(bytes32,address)": {
        "details": "Grants `role` to `account`.     * If `account` had not been already granted `role`, emits a {RoleGranted} event.     * Requirements:     * - the caller must have ``role``'s admin role."
      },
      "hasRole(bytes32,address)": {
        "details": "Returns `true` if `account` has been granted `role`."
      },
      "renounceRole(bytes32,address)": {
        "details": "Revokes `role` from the calling account.     * Roles are often managed via {grantRole} and {revokeRole}: this function's purpose is to provide a mechanism for accounts to lose their privileges if they are compromised (such as when a trusted device is misplaced).     * If the calling account had been granted `role`, emits a {RoleRevoked} event.     * Requirements:     * - the caller must be `account`."
      },
      "revokeRole(bytes32,address)": {
        "details": "Revokes `role` from `account`.     * If `account` had been granted `role`, emits a {RoleRevoked} event.     * Requirements:     * - the caller must have ``role``'s admin role."
      }
    }
  },
  "userdoc": {
    "methods": {}
  }
}